{
	"data": {
		"bytecode": {
			"linkReferences": {},
			"object": "6000600455610140604052600a6080908152601560a052602d60c052606460e05260e661010052610226610120526200003c906006908162000121565b506000600855600a600d553480156200005457600080fd5b506040516200225f3803806200225f833981810160405260808110156200007a57600080fd5b508051602082015160408301516060909301519192909160006200009d6200011d565b600080546001600160a01b0319166001600160a01b0383169081178255604051929350917f8be0079c531659141344cd1fd0a4f28419497f9722a3daafe3b4186f6b6457e0908290a350600180546001600160a01b0319166001600160a01b0395909516949094179093556003919091556002919091556009556200018e565b3390565b82805482825590600052602060002090810192821562000165579160200282015b8281111562000165578251829061ffff1690559160200191906001019062000142565b506200017392915062000177565b5090565b5b8082111562000173576000815560010162000178565b6120c1806200019e6000396000f3fe608060405234801561001057600080fd5b50600436106101da5760003560e01c806364482f791161010457806396c82e57116100a2578063dbe874a511610071578063dbe874a51461049e578063de3ab781146104bb578063f2fde38b14610565578063f67224611461058b576101da565b806396c82e5714610469578063979d3b0014610471578063a84a70aa14610479578063b0bcf42a14610496576101da565b80638aa28550116100de5780638aa28550146103f15780638da5cb5b146103f95780638dbb1e3a1461040157806393f1a40b14610424576101da565b806364482f791461038c578063715018a6146103b757806374eeb4f8146103bf576101da565b80631c4b774b1161017c57806338b222401161014b57806338b222401461033357806348cd4cb11461035f57806351eb05a614610367578063630b5ba114610384576101da565b80631c4b774b146102bb5780631eaaa045146102da5780632e1a7d4d1461030e5780632f48ab7d1461032b576101da565b80631526fe27116101b85780631526fe271461022557806317caf6f11461027f578063195426ec146102875780631aed6553146102b3576101da565b8063081e3eda146101df5780630d668087146101f9578063143e55e014610201575b600080fd5b6101e76105cb565b60408051918252519081900360200190f35b6101e76105d1565b6102096105d8565b604080516001600160a01b039092168252519081900360200190f35b6102426004803603602081101561023b57600080fd5b50356105e7565b604080516001600160a01b0390971687526020870195909552858501939093526060850191909152608084015260a0830152519081900360c00190f35b6101e7610634565b6101e76004803603604081101561029d57600080fd5b50803590602001356001600160a01b031661063a565b6101e7610742565b6102d8600480360360208110156102d157600080fd5b5035610748565b005b6102d8600480360360608110156102f057600080fd5b508035906001600160a01b03602082013516906040013515156107f1565b6102d86004803603602081101561032457600080fd5b5035610a14565b610209610a38565b6101e76004803603604081101561034957600080fd5b50803590602001356001600160a01b0316610a47565b6101e7610a72565b6102d86004803603602081101561037d57600080fd5b5035610a78565b6102d8610b95565b6102d8600480360360608110156103a257600080fd5b50803590602081013590604001351515610bb4565b6102d8610c7f565b6101e7600480360360608110156103d557600080fd5b508035906001600160a01b036020820135169060400135610d21565b6101e7610d66565b610209610d6b565b6101e76004803603604081101561041757600080fd5b5080359060200135610d7a565b6104506004803603604081101561043a57600080fd5b50803590602001356001600160a01b0316610de0565b6040805192835260208301919091528051918290030190f35b6101e7610e04565b6101e7610e0a565b6101e76004803603602081101561048f57600080fd5b5035610e11565b6101e7610e23565b6101e7600480360360208110156104b457600080fd5b5035610e29565b6102d8600480360360408110156104d157600080fd5b813591908101906040810160208201356401000000008111156104f357600080fd5b82018360208201111561050557600080fd5b8035906020019184602083028401116401000000008311171561052757600080fd5b919080806020026020016040519081016040528093929190818152602001838360200280828437600092019190915250929550610e47945050505050565b6102d86004803603602081101561057b57600080fd5b50356001600160a01b0316610eb4565b6105b7600480360360408110156105a157600080fd5b506001600160a01b038135169060200135610fac565b604080519115158252519081900360200190f35b60055490565b6215180081565b6001546001600160a01b031681565b600581815481106105f457fe5b60009182526020909120600690910201805460018201546002830154600384015460048501546005909501546001600160a01b0390941695509193909286565b60085481565b6000806005848154811061064a57fe5b600091825260208083208784526007825260408085206001600160a01b0389168652909252922060036006909202909201908101546004820154600283015492945090914311801561069b57508015155b156107075760006106b0856002015443610d7a565b905060006106e36008546106dd88600101546106d760035487610fcc90919063ffffffff16565b90610fcc565b9061102c565b90506107026106fb846106dd8464e8d4a51000610fcc565b859061106e565b935050505b610735836001015461072f64e8d4a510006106dd868860000154610fcc90919063ffffffff16565b906110c8565b9450505050505b92915050565b60025481565b60006005828154811061075757fe5b6000918252602080832085845260078252604080852033865290925292206006909102909101915061078883610a78565b60006107b6826001015461072f64e8d4a510006106dd87600301548760000154610fcc90919063ffffffff16565b905080156107c8576107c8338261110a565b600383015482546107e39164e8d4a51000916106dd91610fcc565b826001018190555050505050565b6107f961129a565b6000546001600160a01b03908116911614610849576040805162461bcd60e51b8152602060048201819052602482015260008051602061206c833981519152604482015290519081900360640190fd5b6001600160a01b038216610896576040805162461bcd60e51b815260206004820152600f60248201526e1859191c995cdcc81a5b9d985b1a59608a1b604482015290519081900360640190fd5b80156108a4576108a4610b95565b600060095443116108b7576009546108b9565b435b6008549091506108c9908561106e565b6008556040805160c0810182526001600160a01b039485168152602081019586529081019182526000606082018181526080830182815260a0840183815260058054600181018255945293517f036b6384b5eca791c62761152d0c79bb0604c104a5fb6f4eb0703f3154bb3db0600690940293840180546001600160a01b031916919098161790965595517f036b6384b5eca791c62761152d0c79bb0604c104a5fb6f4eb0703f3154bb3db182015591517f036b6384b5eca791c62761152d0c79bb0604c104a5fb6f4eb0703f3154bb3db283015593517f036b6384b5eca791c62761152d0c79bb0604c104a5fb6f4eb0703f3154bb3db382015591517f036b6384b5eca791c62761152d0c79bb0604c104a5fb6f4eb0703f3154bb3db48301555090517f036b6384b5eca791c62761152d0c79bb0604c104a5fb6f4eb0703f3154bb3db590910155565b610a1d81610a78565b6000610a288261129e565b9050610a348282611798565b5050565b600a546001600160a01b031681565b60009182526007602090815260408084206001600160a01b0393909316845291905290206002015490565b60095481565b600060058281548110610a8757fe5b9060005260206000209060060201905080600201544311610aa85750610b92565b600481015480610abf575043600290910155610b92565b6113886004541015610ad15760006003555b61c3506004541015610b1357610b0b6003546106d76001610b056113886106dd6113886004546110c890919063ffffffff16565b9061106e565b600355610b25565b600354610b2190600a610fcc565b6003555b6000610b35836002015443610d7a565b90506000610b5c6008546106dd86600101546106d760035487610fcc90919063ffffffff16565b9050610b7f610b74846106dd8464e8d4a51000610fcc565b60038601549061106e565b6003850155505043600290920191909155505b50565b60055460005b81811015610a3457610bac81610a78565b600101610b9b565b610bbc61129a565b6000546001600160a01b03908116911614610c0c576040805162461bcd60e51b8152602060048201819052602482015260008051602061206c833981519152604482015290519081900360640190fd5b8015610c1a57610c1a610b95565b610c5182610b0560058681548110610c2e57fe5b9060005260206000209060060201600101546008546110c890919063ffffffff16565b6008819055508160058481548110610c6557fe5b906000526020600020906006020160010181905550505050565b610c8761129a565b6000546001600160a01b03908116911614610cd7576040805162461bcd60e51b8152602060048201819052602482015260008051602061206c833981519152604482015290519081900360640190fd5b600080546040516001600160a01b03909116907f8be0079c531659141344cd1fd0a4f28419497f9722a3daafe3b4186f6b6457e0908390a3600080546001600160a01b0319169055565b60008381526007602090815260408083206001600160a01b03861684529091528120600201805483908110610d5257fe5b906000526020600020015490509392505050565b600181565b6000546001600160a01b031690565b60006002548211610d9b57610d9460016106d784866110c8565b905061073c565b6002548310610dae57610d9482846110c8565b610d94610dc6600254846110c890919063ffffffff16565b610b0560016106d7876002546110c890919063ffffffff16565b60076020908152600092835260408084209091529082529020805460019091015482565b60045481565b6213c68081565b600c6020526000908152604090205481565b60035481565b60068181548110610e3657fe5b600091825260209091200154905081565b6000815111610e8e576040805162461bcd60e51b815260206004820152600e60248201526d043616e6e6f74207374616b6520360941b604482015290519081900360640190fd5b610e9782610a78565b6000610ea383836118c6565b9050610eaf8382611d9e565b505050565b610ebc61129a565b6000546001600160a01b03908116911614610f0c576040805162461bcd60e51b8152602060048201819052602482015260008051602061206c833981519152604482015290519081900360640190fd5b6001600160a01b038116610f515760405162461bcd60e51b81526004018080602001828103825260268152602001806120256026913960400191505060405180910390fd5b600080546040516001600160a01b03808516939216917f8be0079c531659141344cd1fd0a4f28419497f9722a3daafe3b4186f6b6457e091a3600080546001600160a01b0319166001600160a01b0392909216919091179055565b600b60209081526000928352604080842090915290825290205460ff1681565b600082610fdb5750600061073c565b82820282848281610fe857fe5b04146110255760405162461bcd60e51b815260040180806020018281038252602181526020018061204b6021913960400191505060405180910390fd5b9392505050565b600061102583836040518060400160405280601a81526020017f536166654d6174683a206469766973696f6e206279207a65726f000000000000815250611e89565b600082820183811015611025576040805162461bcd60e51b815260206004820152601b60248201527f536166654d6174683a206164646974696f6e206f766572666c6f770000000000604482015290519081900360640190fd5b600061102583836040518060400160405280601e81526020017f536166654d6174683a207375627472616374696f6e206f766572666c6f770000815250611f2b565b600154604080516370a0823160e01b815230600482015290516000926001600160a01b0316916370a08231916024808301926020929190829003018186803b15801561115557600080fd5b505afa158015611169573d6000803e3d6000fd5b505050506040513d602081101561117f57600080fd5b5051905080821115611213576001546040805163a9059cbb60e01b81526001600160a01b038681166004830152602482018590529151919092169163a9059cbb9160448083019260209291908290030181600087803b1580156111e157600080fd5b505af11580156111f5573d6000803e3d6000fd5b505050506040513d602081101561120b57600080fd5b50610eaf9050565b6001546040805163a9059cbb60e01b81526001600160a01b038681166004830152602482018690529151919092169163a9059cbb9160448083019260209291908290030181600087803b15801561126957600080fd5b505af115801561127d573d6000803e3d6000fd5b505050506040513d602081101561129357600080fd5b5050505050565b3390565b600080600583815481106112ae57fe5b60009182526020808320868452600782526040808520338652909252922060028101546006909202909201925080158061130257506000858152600760209081526040808320338452909152902060020154155b156113135760009350505050611793565b60006060600080600d548511156113745750600d548085039067ffffffffffffffff8111801561134257600080fd5b5060405190808252806020026020018201604052801561136c578160200160208202803683370190505b5092506113b9565b8467ffffffffffffffff8111801561138b57600080fd5b506040519080825280602002602001820160405280156113b5578160200160208202803683370190505b5092505b60001985015b8181106116be578660020181815481106113d557fe5b906000526020600020015494506213c68061141962151800611413600c60008a815260200190815260200160002054426110c890919063ffffffff16565b90611f85565b1015611463576040805162461bcd60e51b8152602060048201526014602482015273456e6c6f7567682054696d6520746f206c6f636b60601b604482015290519081900360640190fd5b8754604080516307567a6f60e41b815260048101889052905160009283926001600160a01b0390911691637567a6f0916024808201928692909190829003018186803b1580156114b257600080fd5b505afa1580156114c6573d6000803e3d6000fd5b505050506040513d6000823e601f3d908101601f1916820160405260c08110156114ef57600080fd5b81516020830180516040519294929383019291908464010000000082111561151657600080fd5b90830190602082018581111561152b57600080fd5b825164010000000081118282018810171561154557600080fd5b82525081516020918201929091019080838360005b8381101561157257818101518382015260200161155a565b50505050905090810190601f16801561159f5780820380516001836020036101000a031916815260200191505b506040908152602082015191015160068054929850909650945060001987019350831091506115cc905057fe5b600091825260209091200154600480549190910390556115ec8b8261106e565b9a50868686815181106115fb57fe5b60209081029190910101526002890180546001909601958061161957fe5b600082815260208082208301600019908101839055909201909255338252600b815260408083208a84528252808320805460ff19169055600c90915281205560058a01546116689060016110c8565b60058b01558284141561167c5750506116be565b6040805188815290518d9133917f72669f1abc5c863b907b781db14a7bab022278d6436116140679c6bca956ba0c9181900360200190a35050600019016113bf565b5060048701546116ce90896110c8565b600480890191909155875460405162d1807b60e21b81523092810183815233602483018190526060604484019081528851606485015288516001600160a01b039095169563034601ec95909492938a939092916084909101906020808601910280838360005b8381101561174c578181015183820152602001611734565b50505050905001945050505050600060405180830381600087803b15801561177357600080fd5b505af1158015611787573d6000803e3d6000fd5b50505050505050505050505b919050565b6000600583815481106117a757fe5b60009182526020808320868452600782526040808520338652909252922080546006909202909201925083111561181a576040805162461bcd60e51b81526020600482015260126024820152711dda5d1a191c985dce881b9bdd0819dbdbd960721b604482015290519081900360640190fd5b6000611848826001015461072f64e8d4a510006106dd87600301548760000154610fcc90919063ffffffff16565b9050801561185a5761185a338261110a565b815461186690856110c8565b80835560038401546118839164e8d4a51000916106dd9190610fcc565b6001830155604080518581529051869133917ff279e6a1f5e320cca91135676d9cb6e44ca8a08c0b88342bcdb1144f6511b5689181900360200190a35050505050565b600080600584815481106118d657fe5b600091825260208083208784526007825260408085203386529092529083208651600d546006909402909201945092909182111561195b576040805162461bcd60e51b815260206004820152601e60248201527f63616e206e6f7420626967207468656e206d617857697468416d6f756e740000604482015290519081900360640190fd5b60005b82811015611cb35786818151811061197257fe5b602090810291909101810151336000908152600b83526040808220838352909352919091205490925060ff16156119df576040805162461bcd60e51b815260206004820152600c60248201526b185b1c9958591e48195e1a5d60a21b604482015290519081900360640190fd5b8454604080516331a9108f60e11b815260048101859052905133926001600160a01b031691636352211e9160248083019260209291908290030181600087803b158015611a2b57600080fd5b505af1158015611a3f573d6000803e3d6000fd5b505050506040513d6020811015611a5557600080fd5b50516001600160a01b031614611aa0576040805162461bcd60e51b815260206004820152600b60248201526a3737ba1037bbb732b927b360a91b604482015290519081900360640190fd5b6000828152600c6020526040808220429055865481516307567a6f60e41b815260048101869052915183926001600160a01b0390921691637567a6f09160248083019286929190829003018186803b158015611afb57600080fd5b505afa158015611b0f573d6000803e3d6000fd5b505050506040513d6000823e601f3d908101601f1916820160405260c0811015611b3857600080fd5b815160208301805160405192949293830192919084640100000000821115611b5f57600080fd5b908301906020820185811115611b7457600080fd5b8251640100000000811182820188101715611b8e57600080fd5b82525081516020918201929091019080838360005b83811015611bbb578181015183820152602001611ba3565b50505050905090810190601f168015611be85780820380516001836020036101000a031916815260200191505b50604090815260208201519101516006805492985090965094506000198701935083109150611c15905057fe5b600091825260209091200154600480549091019055611c34888261106e565b336000818152600b602090815260408083208984528252808320805460ff1916600190811790915560028c018054918201815584529282902090920188905581518881529151939b508d937f2c6e00d05c9537687e3346c6bb423b06c873979206b8d425ddbb4f9b436e05829281900390910190a3505060010161195e565b506005840154611cc3908361106e565b60058501556004840154611cd7908661106e565b600480860191909155845460405162d1807b60e21b81523392810183815230602483018190526060604484019081528b5160648501528b516001600160a01b039095169563034601ec95909492938d939092916084909101906020808601910280838360005b83811015611d55578181015183820152602001611d3d565b50505050905001945050505050600060405180830381600087803b158015611d7c57600080fd5b505af1158015611d90573d6000803e3d6000fd5b505050505050505092915050565b600060058381548110611dad57fe5b60009182526020808320868452600782526040808520338652909252922080546006909202909201925015611e1e576000611e0a826001015461072f64e8d4a510006106dd87600301548760000154610fcc90919063ffffffff16565b90508015611e1c57611e1c338261110a565b505b8054611e2a908461106e565b8082556003830154611e479164e8d4a51000916106dd9190610fcc565b6001820155604080518481529051859133917f90890809c654f11d6e72a28fa60149770a0d11ec6c92319d6ceb2bb0a4ea1a159181900360200190a350505050565b60008183611f155760405162461bcd60e51b81526004018080602001828103825283818151815260200191508051906020019080838360005b83811015611eda578181015183820152602001611ec2565b50505050905090810190601f168015611f075780820380516001836020036101000a031916815260200191505b509250505060405180910390fd5b506000838581611f2157fe5b0495945050505050565b60008184841115611f7d5760405162461bcd60e51b8152602060048201818152835160248401528351909283926044909101919085019080838360008315611eda578181015183820152602001611ec2565b505050900390565b600061102583836040518060400160405280601881526020017f536166654d6174683a206d6f64756c6f206279207a65726f0000000000000000815250600081836120115760405162461bcd60e51b8152602060048201818152835160248401528351909283926044909101919085019080838360008315611eda578181015183820152602001611ec2565b5082848161201b57fe5b0694935050505056fe4f776e61626c653a206e6577206f776e657220697320746865207a65726f2061646472657373536166654d6174683a206d756c7469706c69636174696f6e206f766572666c6f774f776e61626c653a2063616c6c6572206973206e6f7420746865206f776e6572a26469706673582212200fc795c9c12e4432f89e383cc3a72582040d1a14d187972253a32e54afa24a1b64736f6c634300060c0033",
			"opcodes": "PUSH1 0x0 PUSH1 0x4 SSTORE PUSH2 0x140 PUSH1 0x40 MSTORE PUSH1 0xA PUSH1 0x80 SWAP1 DUP2 MSTORE PUSH1 0x15 PUSH1 0xA0 MSTORE PUSH1 0x2D PUSH1 0xC0 MSTORE PUSH1 0x64 PUSH1 0xE0 MSTORE PUSH1 0xE6 PUSH2 0x100 MSTORE PUSH2 0x226 PUSH2 0x120 MSTORE PUSH3 0x3C SWAP1 PUSH1 0x6 SWAP1 DUP2 PUSH3 0x121 JUMP JUMPDEST POP PUSH1 0x0 PUSH1 0x8 SSTORE PUSH1 0xA PUSH1 0xD SSTORE CALLVALUE DUP1 ISZERO PUSH3 0x54 JUMPI PUSH1 0x0 DUP1 REVERT JUMPDEST POP PUSH1 0x40 MLOAD PUSH3 0x225F CODESIZE SUB DUP1 PUSH3 0x225F DUP4 CODECOPY DUP2 DUP2 ADD PUSH1 0x40 MSTORE PUSH1 0x80 DUP2 LT ISZERO PUSH3 0x7A JUMPI PUSH1 0x0 DUP1 REVERT JUMPDEST POP DUP1 MLOAD PUSH1 0x20 DUP3 ADD MLOAD PUSH1 0x40 DUP4 ADD MLOAD PUSH1 0x60 SWAP1 SWAP4 ADD MLOAD SWAP2 SWAP3 SWAP1 SWAP2 PUSH1 0x0 PUSH3 0x9D PUSH3 0x11D JUMP JUMPDEST PUSH1 0x0 DUP1 SLOAD PUSH1 0x1 PUSH1 0x1 PUSH1 0xA0 SHL SUB NOT AND PUSH1 0x1 PUSH1 0x1 PUSH1 0xA0 SHL SUB DUP4 AND SWAP1 DUP2 OR DUP3 SSTORE PUSH1 0x40 MLOAD SWAP3 SWAP4 POP SWAP2 PUSH32 0x8BE0079C531659141344CD1FD0A4F28419497F9722A3DAAFE3B4186F6B6457E0 SWAP1 DUP3 SWAP1 LOG3 POP PUSH1 0x1 DUP1 SLOAD PUSH1 0x1 PUSH1 0x1 PUSH1 0xA0 SHL SUB NOT AND PUSH1 0x1 PUSH1 0x1 PUSH1 0xA0 SHL SUB SWAP6 SWAP1 SWAP6 AND SWAP5 SWAP1 SWAP5 OR SWAP1 SWAP4 SSTORE PUSH1 0x3 SWAP2 SWAP1 SWAP2 SSTORE PUSH1 0x2 SWAP2 SWAP1 SWAP2 SSTORE PUSH1 0x9 SSTORE PUSH3 0x18E JUMP JUMPDEST CALLER SWAP1 JUMP JUMPDEST DUP3 DUP1 SLOAD DUP3 DUP3 SSTORE SWAP1 PUSH1 0x0 MSTORE PUSH1 0x20 PUSH1 0x0 KECCAK256 SWAP1 DUP2 ADD SWAP3 DUP3 ISZERO PUSH3 0x165 JUMPI SWAP2 PUSH1 0x20 MUL DUP3 ADD JUMPDEST DUP3 DUP2 GT ISZERO PUSH3 0x165 JUMPI DUP3 MLOAD DUP3 SWAP1 PUSH2 0xFFFF AND SWAP1 SSTORE SWAP2 PUSH1 0x20 ADD SWAP2 SWAP1 PUSH1 0x1 ADD SWAP1 PUSH3 0x142 JUMP JUMPDEST POP PUSH3 0x173 SWAP3 SWAP2 POP PUSH3 0x177 JUMP JUMPDEST POP SWAP1 JUMP JUMPDEST JUMPDEST DUP1 DUP3 GT ISZERO PUSH3 0x173 JUMPI PUSH1 0x0 DUP2 SSTORE PUSH1 0x1 ADD PUSH3 0x178 JUMP JUMPDEST PUSH2 0x20C1 DUP1 PUSH3 0x19E PUSH1 0x0 CODECOPY PUSH1 0x0 RETURN INVALID PUSH1 0x80 PUSH1 0x40 MSTORE CALLVALUE DUP1 ISZERO PUSH2 0x10 JUMPI PUSH1 0x0 DUP1 REVERT JUMPDEST POP PUSH1 0x4 CALLDATASIZE LT PUSH2 0x1DA JUMPI PUSH1 0x0 CALLDATALOAD PUSH1 0xE0 SHR DUP1 PUSH4 0x64482F79 GT PUSH2 0x104 JUMPI DUP1 PUSH4 0x96C82E57 GT PUSH2 0xA2 JUMPI DUP1 PUSH4 0xDBE874A5 GT PUSH2 0x71 JUMPI DUP1 PUSH4 0xDBE874A5 EQ PUSH2 0x49E JUMPI DUP1 PUSH4 0xDE3AB781 EQ PUSH2 0x4BB JUMPI DUP1 PUSH4 0xF2FDE38B EQ PUSH2 0x565 JUMPI DUP1 PUSH4 0xF6722461 EQ PUSH2 0x58B JUMPI PUSH2 0x1DA JUMP JUMPDEST DUP1 PUSH4 0x96C82E57 EQ PUSH2 0x469 JUMPI DUP1 PUSH4 0x979D3B00 EQ PUSH2 0x471 JUMPI DUP1 PUSH4 0xA84A70AA EQ PUSH2 0x479 JUMPI DUP1 PUSH4 0xB0BCF42A EQ PUSH2 0x496 JUMPI PUSH2 0x1DA JUMP JUMPDEST DUP1 PUSH4 0x8AA28550 GT PUSH2 0xDE JUMPI DUP1 PUSH4 0x8AA28550 EQ PUSH2 0x3F1 JUMPI DUP1 PUSH4 0x8DA5CB5B EQ PUSH2 0x3F9 JUMPI DUP1 PUSH4 0x8DBB1E3A EQ PUSH2 0x401 JUMPI DUP1 PUSH4 0x93F1A40B EQ PUSH2 0x424 JUMPI PUSH2 0x1DA JUMP JUMPDEST DUP1 PUSH4 0x64482F79 EQ PUSH2 0x38C JUMPI DUP1 PUSH4 0x715018A6 EQ PUSH2 0x3B7 JUMPI DUP1 PUSH4 0x74EEB4F8 EQ PUSH2 0x3BF JUMPI PUSH2 0x1DA JUMP JUMPDEST DUP1 PUSH4 0x1C4B774B GT PUSH2 0x17C JUMPI DUP1 PUSH4 0x38B22240 GT PUSH2 0x14B JUMPI DUP1 PUSH4 0x38B22240 EQ PUSH2 0x333 JUMPI DUP1 PUSH4 0x48CD4CB1 EQ PUSH2 0x35F JUMPI DUP1 PUSH4 0x51EB05A6 EQ PUSH2 0x367 JUMPI DUP1 PUSH4 0x630B5BA1 EQ PUSH2 0x384 JUMPI PUSH2 0x1DA JUMP JUMPDEST DUP1 PUSH4 0x1C4B774B EQ PUSH2 0x2BB JUMPI DUP1 PUSH4 0x1EAAA045 EQ PUSH2 0x2DA JUMPI DUP1 PUSH4 0x2E1A7D4D EQ PUSH2 0x30E JUMPI DUP1 PUSH4 0x2F48AB7D EQ PUSH2 0x32B JUMPI PUSH2 0x1DA JUMP JUMPDEST DUP1 PUSH4 0x1526FE27 GT PUSH2 0x1B8 JUMPI DUP1 PUSH4 0x1526FE27 EQ PUSH2 0x225 JUMPI DUP1 PUSH4 0x17CAF6F1 EQ PUSH2 0x27F JUMPI DUP1 PUSH4 0x195426EC EQ PUSH2 0x287 JUMPI DUP1 PUSH4 0x1AED6553 EQ PUSH2 0x2B3 JUMPI PUSH2 0x1DA JUMP JUMPDEST DUP1 PUSH4 0x81E3EDA EQ PUSH2 0x1DF JUMPI DUP1 PUSH4 0xD668087 EQ PUSH2 0x1F9 JUMPI DUP1 PUSH4 0x143E55E0 EQ PUSH2 0x201 JUMPI JUMPDEST PUSH1 0x0 DUP1 REVERT JUMPDEST PUSH2 0x1E7 PUSH2 0x5CB JUMP JUMPDEST PUSH1 0x40 DUP1 MLOAD SWAP2 DUP3 MSTORE MLOAD SWAP1 DUP2 SWAP1 SUB PUSH1 0x20 ADD SWAP1 RETURN JUMPDEST PUSH2 0x1E7 PUSH2 0x5D1 JUMP JUMPDEST PUSH2 0x209 PUSH2 0x5D8 JUMP JUMPDEST PUSH1 0x40 DUP1 MLOAD PUSH1 0x1 PUSH1 0x1 PUSH1 0xA0 SHL SUB SWAP1 SWAP3 AND DUP3 MSTORE MLOAD SWAP1 DUP2 SWAP1 SUB PUSH1 0x20 ADD SWAP1 RETURN JUMPDEST PUSH2 0x242 PUSH1 0x4 DUP1 CALLDATASIZE SUB PUSH1 0x20 DUP2 LT ISZERO PUSH2 0x23B JUMPI PUSH1 0x0 DUP1 REVERT JUMPDEST POP CALLDATALOAD PUSH2 0x5E7 JUMP JUMPDEST PUSH1 0x40 DUP1 MLOAD PUSH1 0x1 PUSH1 0x1 PUSH1 0xA0 SHL SUB SWAP1 SWAP8 AND DUP8 MSTORE PUSH1 0x20 DUP8 ADD SWAP6 SWAP1 SWAP6 MSTORE DUP6 DUP6 ADD SWAP4 SWAP1 SWAP4 MSTORE PUSH1 0x60 DUP6 ADD SWAP2 SWAP1 SWAP2 MSTORE PUSH1 0x80 DUP5 ADD MSTORE PUSH1 0xA0 DUP4 ADD MSTORE MLOAD SWAP1 DUP2 SWAP1 SUB PUSH1 0xC0 ADD SWAP1 RETURN JUMPDEST PUSH2 0x1E7 PUSH2 0x634 JUMP JUMPDEST PUSH2 0x1E7 PUSH1 0x4 DUP1 CALLDATASIZE SUB PUSH1 0x40 DUP2 LT ISZERO PUSH2 0x29D JUMPI PUSH1 0x0 DUP1 REVERT JUMPDEST POP DUP1 CALLDATALOAD SWAP1 PUSH1 0x20 ADD CALLDATALOAD PUSH1 0x1 PUSH1 0x1 PUSH1 0xA0 SHL SUB AND PUSH2 0x63A JUMP JUMPDEST PUSH2 0x1E7 PUSH2 0x742 JUMP JUMPDEST PUSH2 0x2D8 PUSH1 0x4 DUP1 CALLDATASIZE SUB PUSH1 0x20 DUP2 LT ISZERO PUSH2 0x2D1 JUMPI PUSH1 0x0 DUP1 REVERT JUMPDEST POP CALLDATALOAD PUSH2 0x748 JUMP JUMPDEST STOP JUMPDEST PUSH2 0x2D8 PUSH1 0x4 DUP1 CALLDATASIZE SUB PUSH1 0x60 DUP2 LT ISZERO PUSH2 0x2F0 JUMPI PUSH1 0x0 DUP1 REVERT JUMPDEST POP DUP1 CALLDATALOAD SWAP1 PUSH1 0x1 PUSH1 0x1 PUSH1 0xA0 SHL SUB PUSH1 0x20 DUP3 ADD CALLDATALOAD AND SWAP1 PUSH1 0x40 ADD CALLDATALOAD ISZERO ISZERO PUSH2 0x7F1 JUMP JUMPDEST PUSH2 0x2D8 PUSH1 0x4 DUP1 CALLDATASIZE SUB PUSH1 0x20 DUP2 LT ISZERO PUSH2 0x324 JUMPI PUSH1 0x0 DUP1 REVERT JUMPDEST POP CALLDATALOAD PUSH2 0xA14 JUMP JUMPDEST PUSH2 0x209 PUSH2 0xA38 JUMP JUMPDEST PUSH2 0x1E7 PUSH1 0x4 DUP1 CALLDATASIZE SUB PUSH1 0x40 DUP2 LT ISZERO PUSH2 0x349 JUMPI PUSH1 0x0 DUP1 REVERT JUMPDEST POP DUP1 CALLDATALOAD SWAP1 PUSH1 0x20 ADD CALLDATALOAD PUSH1 0x1 PUSH1 0x1 PUSH1 0xA0 SHL SUB AND PUSH2 0xA47 JUMP JUMPDEST PUSH2 0x1E7 PUSH2 0xA72 JUMP JUMPDEST PUSH2 0x2D8 PUSH1 0x4 DUP1 CALLDATASIZE SUB PUSH1 0x20 DUP2 LT ISZERO PUSH2 0x37D JUMPI PUSH1 0x0 DUP1 REVERT JUMPDEST POP CALLDATALOAD PUSH2 0xA78 JUMP JUMPDEST PUSH2 0x2D8 PUSH2 0xB95 JUMP JUMPDEST PUSH2 0x2D8 PUSH1 0x4 DUP1 CALLDATASIZE SUB PUSH1 0x60 DUP2 LT ISZERO PUSH2 0x3A2 JUMPI PUSH1 0x0 DUP1 REVERT JUMPDEST POP DUP1 CALLDATALOAD SWAP1 PUSH1 0x20 DUP2 ADD CALLDATALOAD SWAP1 PUSH1 0x40 ADD CALLDATALOAD ISZERO ISZERO PUSH2 0xBB4 JUMP JUMPDEST PUSH2 0x2D8 PUSH2 0xC7F JUMP JUMPDEST PUSH2 0x1E7 PUSH1 0x4 DUP1 CALLDATASIZE SUB PUSH1 0x60 DUP2 LT ISZERO PUSH2 0x3D5 JUMPI PUSH1 0x0 DUP1 REVERT JUMPDEST POP DUP1 CALLDATALOAD SWAP1 PUSH1 0x1 PUSH1 0x1 PUSH1 0xA0 SHL SUB PUSH1 0x20 DUP3 ADD CALLDATALOAD AND SWAP1 PUSH1 0x40 ADD CALLDATALOAD PUSH2 0xD21 JUMP JUMPDEST PUSH2 0x1E7 PUSH2 0xD66 JUMP JUMPDEST PUSH2 0x209 PUSH2 0xD6B JUMP JUMPDEST PUSH2 0x1E7 PUSH1 0x4 DUP1 CALLDATASIZE SUB PUSH1 0x40 DUP2 LT ISZERO PUSH2 0x417 JUMPI PUSH1 0x0 DUP1 REVERT JUMPDEST POP DUP1 CALLDATALOAD SWAP1 PUSH1 0x20 ADD CALLDATALOAD PUSH2 0xD7A JUMP JUMPDEST PUSH2 0x450 PUSH1 0x4 DUP1 CALLDATASIZE SUB PUSH1 0x40 DUP2 LT ISZERO PUSH2 0x43A JUMPI PUSH1 0x0 DUP1 REVERT JUMPDEST POP DUP1 CALLDATALOAD SWAP1 PUSH1 0x20 ADD CALLDATALOAD PUSH1 0x1 PUSH1 0x1 PUSH1 0xA0 SHL SUB AND PUSH2 0xDE0 JUMP JUMPDEST PUSH1 0x40 DUP1 MLOAD SWAP3 DUP4 MSTORE PUSH1 0x20 DUP4 ADD SWAP2 SWAP1 SWAP2 MSTORE DUP1 MLOAD SWAP2 DUP3 SWAP1 SUB ADD SWAP1 RETURN JUMPDEST PUSH2 0x1E7 PUSH2 0xE04 JUMP JUMPDEST PUSH2 0x1E7 PUSH2 0xE0A JUMP JUMPDEST PUSH2 0x1E7 PUSH1 0x4 DUP1 CALLDATASIZE SUB PUSH1 0x20 DUP2 LT ISZERO PUSH2 0x48F JUMPI PUSH1 0x0 DUP1 REVERT JUMPDEST POP CALLDATALOAD PUSH2 0xE11 JUMP JUMPDEST PUSH2 0x1E7 PUSH2 0xE23 JUMP JUMPDEST PUSH2 0x1E7 PUSH1 0x4 DUP1 CALLDATASIZE SUB PUSH1 0x20 DUP2 LT ISZERO PUSH2 0x4B4 JUMPI PUSH1 0x0 DUP1 REVERT JUMPDEST POP CALLDATALOAD PUSH2 0xE29 JUMP JUMPDEST PUSH2 0x2D8 PUSH1 0x4 DUP1 CALLDATASIZE SUB PUSH1 0x40 DUP2 LT ISZERO PUSH2 0x4D1 JUMPI PUSH1 0x0 DUP1 REVERT JUMPDEST DUP2 CALLDATALOAD SWAP2 SWAP1 DUP2 ADD SWAP1 PUSH1 0x40 DUP2 ADD PUSH1 0x20 DUP3 ADD CALLDATALOAD PUSH5 0x100000000 DUP2 GT ISZERO PUSH2 0x4F3 JUMPI PUSH1 0x0 DUP1 REVERT JUMPDEST DUP3 ADD DUP4 PUSH1 0x20 DUP3 ADD GT ISZERO PUSH2 0x505 JUMPI PUSH1 0x0 DUP1 REVERT JUMPDEST DUP1 CALLDATALOAD SWAP1 PUSH1 0x20 ADD SWAP2 DUP5 PUSH1 0x20 DUP4 MUL DUP5 ADD GT PUSH5 0x100000000 DUP4 GT OR ISZERO PUSH2 0x527 JUMPI PUSH1 0x0 DUP1 REVERT JUMPDEST SWAP2 SWAP1 DUP1 DUP1 PUSH1 0x20 MUL PUSH1 0x20 ADD PUSH1 0x40 MLOAD SWAP1 DUP2 ADD PUSH1 0x40 MSTORE DUP1 SWAP4 SWAP3 SWAP2 SWAP1 DUP2 DUP2 MSTORE PUSH1 0x20 ADD DUP4 DUP4 PUSH1 0x20 MUL DUP1 DUP3 DUP5 CALLDATACOPY PUSH1 0x0 SWAP3 ADD SWAP2 SWAP1 SWAP2 MSTORE POP SWAP3 SWAP6 POP PUSH2 0xE47 SWAP5 POP POP POP POP POP JUMP JUMPDEST PUSH2 0x2D8 PUSH1 0x4 DUP1 CALLDATASIZE SUB PUSH1 0x20 DUP2 LT ISZERO PUSH2 0x57B JUMPI PUSH1 0x0 DUP1 REVERT JUMPDEST POP CALLDATALOAD PUSH1 0x1 PUSH1 0x1 PUSH1 0xA0 SHL SUB AND PUSH2 0xEB4 JUMP JUMPDEST PUSH2 0x5B7 PUSH1 0x4 DUP1 CALLDATASIZE SUB PUSH1 0x40 DUP2 LT ISZERO PUSH2 0x5A1 JUMPI PUSH1 0x0 DUP1 REVERT JUMPDEST POP PUSH1 0x1 PUSH1 0x1 PUSH1 0xA0 SHL SUB DUP2 CALLDATALOAD AND SWAP1 PUSH1 0x20 ADD CALLDATALOAD PUSH2 0xFAC JUMP JUMPDEST PUSH1 0x40 DUP1 MLOAD SWAP2 ISZERO ISZERO DUP3 MSTORE MLOAD SWAP1 DUP2 SWAP1 SUB PUSH1 0x20 ADD SWAP1 RETURN JUMPDEST PUSH1 0x5 SLOAD SWAP1 JUMP JUMPDEST PUSH3 0x151800 DUP2 JUMP JUMPDEST PUSH1 0x1 SLOAD PUSH1 0x1 PUSH1 0x1 PUSH1 0xA0 SHL SUB AND DUP2 JUMP JUMPDEST PUSH1 0x5 DUP2 DUP2 SLOAD DUP2 LT PUSH2 0x5F4 JUMPI INVALID JUMPDEST PUSH1 0x0 SWAP2 DUP3 MSTORE PUSH1 0x20 SWAP1 SWAP2 KECCAK256 PUSH1 0x6 SWAP1 SWAP2 MUL ADD DUP1 SLOAD PUSH1 0x1 DUP3 ADD SLOAD PUSH1 0x2 DUP4 ADD SLOAD PUSH1 0x3 DUP5 ADD SLOAD PUSH1 0x4 DUP6 ADD SLOAD PUSH1 0x5 SWAP1 SWAP6 ADD SLOAD PUSH1 0x1 PUSH1 0x1 PUSH1 0xA0 SHL SUB SWAP1 SWAP5 AND SWAP6 POP SWAP2 SWAP4 SWAP1 SWAP3 DUP7 JUMP JUMPDEST PUSH1 0x8 SLOAD DUP2 JUMP JUMPDEST PUSH1 0x0 DUP1 PUSH1 0x5 DUP5 DUP2 SLOAD DUP2 LT PUSH2 0x64A JUMPI INVALID JUMPDEST PUSH1 0x0 SWAP2 DUP3 MSTORE PUSH1 0x20 DUP1 DUP4 KECCAK256 DUP8 DUP5 MSTORE PUSH1 0x7 DUP3 MSTORE PUSH1 0x40 DUP1 DUP6 KECCAK256 PUSH1 0x1 PUSH1 0x1 PUSH1 0xA0 SHL SUB DUP10 AND DUP7 MSTORE SWAP1 SWAP3 MSTORE SWAP3 KECCAK256 PUSH1 0x3 PUSH1 0x6 SWAP1 SWAP3 MUL SWAP1 SWAP3 ADD SWAP1 DUP2 ADD SLOAD PUSH1 0x4 DUP3 ADD SLOAD PUSH1 0x2 DUP4 ADD SLOAD SWAP3 SWAP5 POP SWAP1 SWAP2 NUMBER GT DUP1 ISZERO PUSH2 0x69B JUMPI POP DUP1 ISZERO ISZERO JUMPDEST ISZERO PUSH2 0x707 JUMPI PUSH1 0x0 PUSH2 0x6B0 DUP6 PUSH1 0x2 ADD SLOAD NUMBER PUSH2 0xD7A JUMP JUMPDEST SWAP1 POP PUSH1 0x0 PUSH2 0x6E3 PUSH1 0x8 SLOAD PUSH2 0x6DD DUP9 PUSH1 0x1 ADD SLOAD PUSH2 0x6D7 PUSH1 0x3 SLOAD DUP8 PUSH2 0xFCC SWAP1 SWAP2 SWAP1 PUSH4 0xFFFFFFFF AND JUMP JUMPDEST SWAP1 PUSH2 0xFCC JUMP JUMPDEST SWAP1 PUSH2 0x102C JUMP JUMPDEST SWAP1 POP PUSH2 0x702 PUSH2 0x6FB DUP5 PUSH2 0x6DD DUP5 PUSH5 0xE8D4A51000 PUSH2 0xFCC JUMP JUMPDEST DUP6 SWAP1 PUSH2 0x106E JUMP JUMPDEST SWAP4 POP POP POP JUMPDEST PUSH2 0x735 DUP4 PUSH1 0x1 ADD SLOAD PUSH2 0x72F PUSH5 0xE8D4A51000 PUSH2 0x6DD DUP7 DUP9 PUSH1 0x0 ADD SLOAD PUSH2 0xFCC SWAP1 SWAP2 SWAP1 PUSH4 0xFFFFFFFF AND JUMP JUMPDEST SWAP1 PUSH2 0x10C8 JUMP JUMPDEST SWAP5 POP POP POP POP POP JUMPDEST SWAP3 SWAP2 POP POP JUMP JUMPDEST PUSH1 0x2 SLOAD DUP2 JUMP JUMPDEST PUSH1 0x0 PUSH1 0x5 DUP3 DUP2 SLOAD DUP2 LT PUSH2 0x757 JUMPI INVALID JUMPDEST PUSH1 0x0 SWAP2 DUP3 MSTORE PUSH1 0x20 DUP1 DUP4 KECCAK256 DUP6 DUP5 MSTORE PUSH1 0x7 DUP3 MSTORE PUSH1 0x40 DUP1 DUP6 KECCAK256 CALLER DUP7 MSTORE SWAP1 SWAP3 MSTORE SWAP3 KECCAK256 PUSH1 0x6 SWAP1 SWAP2 MUL SWAP1 SWAP2 ADD SWAP2 POP PUSH2 0x788 DUP4 PUSH2 0xA78 JUMP JUMPDEST PUSH1 0x0 PUSH2 0x7B6 DUP3 PUSH1 0x1 ADD SLOAD PUSH2 0x72F PUSH5 0xE8D4A51000 PUSH2 0x6DD DUP8 PUSH1 0x3 ADD SLOAD DUP8 PUSH1 0x0 ADD SLOAD PUSH2 0xFCC SWAP1 SWAP2 SWAP1 PUSH4 0xFFFFFFFF AND JUMP JUMPDEST SWAP1 POP DUP1 ISZERO PUSH2 0x7C8 JUMPI PUSH2 0x7C8 CALLER DUP3 PUSH2 0x110A JUMP JUMPDEST PUSH1 0x3 DUP4 ADD SLOAD DUP3 SLOAD PUSH2 0x7E3 SWAP2 PUSH5 0xE8D4A51000 SWAP2 PUSH2 0x6DD SWAP2 PUSH2 0xFCC JUMP JUMPDEST DUP3 PUSH1 0x1 ADD DUP2 SWAP1 SSTORE POP POP POP POP POP JUMP JUMPDEST PUSH2 0x7F9 PUSH2 0x129A JUMP JUMPDEST PUSH1 0x0 SLOAD PUSH1 0x1 PUSH1 0x1 PUSH1 0xA0 SHL SUB SWAP1 DUP2 AND SWAP2 AND EQ PUSH2 0x849 JUMPI PUSH1 0x40 DUP1 MLOAD PUSH3 0x461BCD PUSH1 0xE5 SHL DUP2 MSTORE PUSH1 0x20 PUSH1 0x4 DUP3 ADD DUP2 SWAP1 MSTORE PUSH1 0x24 DUP3 ADD MSTORE PUSH1 0x0 DUP1 MLOAD PUSH1 0x20 PUSH2 0x206C DUP4 CODECOPY DUP2 MLOAD SWAP2 MSTORE PUSH1 0x44 DUP3 ADD MSTORE SWAP1 MLOAD SWAP1 DUP2 SWAP1 SUB PUSH1 0x64 ADD SWAP1 REVERT JUMPDEST PUSH1 0x1 PUSH1 0x1 PUSH1 0xA0 SHL SUB DUP3 AND PUSH2 0x896 JUMPI PUSH1 0x40 DUP1 MLOAD PUSH3 0x461BCD PUSH1 0xE5 SHL DUP2 MSTORE PUSH1 0x20 PUSH1 0x4 DUP3 ADD MSTORE PUSH1 0xF PUSH1 0x24 DUP3 ADD MSTORE PUSH15 0x1859191C995CDCC81A5B9D985B1A59 PUSH1 0x8A SHL PUSH1 0x44 DUP3 ADD MSTORE SWAP1 MLOAD SWAP1 DUP2 SWAP1 SUB PUSH1 0x64 ADD SWAP1 REVERT JUMPDEST DUP1 ISZERO PUSH2 0x8A4 JUMPI PUSH2 0x8A4 PUSH2 0xB95 JUMP JUMPDEST PUSH1 0x0 PUSH1 0x9 SLOAD NUMBER GT PUSH2 0x8B7 JUMPI PUSH1 0x9 SLOAD PUSH2 0x8B9 JUMP JUMPDEST NUMBER JUMPDEST PUSH1 0x8 SLOAD SWAP1 SWAP2 POP PUSH2 0x8C9 SWAP1 DUP6 PUSH2 0x106E JUMP JUMPDEST PUSH1 0x8 SSTORE PUSH1 0x40 DUP1 MLOAD PUSH1 0xC0 DUP2 ADD DUP3 MSTORE PUSH1 0x1 PUSH1 0x1 PUSH1 0xA0 SHL SUB SWAP5 DUP6 AND DUP2 MSTORE PUSH1 0x20 DUP2 ADD SWAP6 DUP7 MSTORE SWAP1 DUP2 ADD SWAP2 DUP3 MSTORE PUSH1 0x0 PUSH1 0x60 DUP3 ADD DUP2 DUP2 MSTORE PUSH1 0x80 DUP4 ADD DUP3 DUP2 MSTORE PUSH1 0xA0 DUP5 ADD DUP4 DUP2 MSTORE PUSH1 0x5 DUP1 SLOAD PUSH1 0x1 DUP2 ADD DUP3 SSTORE SWAP5 MSTORE SWAP4 MLOAD PUSH32 0x36B6384B5ECA791C62761152D0C79BB0604C104A5FB6F4EB0703F3154BB3DB0 PUSH1 0x6 SWAP1 SWAP5 MUL SWAP4 DUP5 ADD DUP1 SLOAD PUSH1 0x1 PUSH1 0x1 PUSH1 0xA0 SHL SUB NOT AND SWAP2 SWAP1 SWAP9 AND OR SWAP1 SWAP7 SSTORE SWAP6 MLOAD PUSH32 0x36B6384B5ECA791C62761152D0C79BB0604C104A5FB6F4EB0703F3154BB3DB1 DUP3 ADD SSTORE SWAP2 MLOAD PUSH32 0x36B6384B5ECA791C62761152D0C79BB0604C104A5FB6F4EB0703F3154BB3DB2 DUP4 ADD SSTORE SWAP4 MLOAD PUSH32 0x36B6384B5ECA791C62761152D0C79BB0604C104A5FB6F4EB0703F3154BB3DB3 DUP3 ADD SSTORE SWAP2 MLOAD PUSH32 0x36B6384B5ECA791C62761152D0C79BB0604C104A5FB6F4EB0703F3154BB3DB4 DUP4 ADD SSTORE POP SWAP1 MLOAD PUSH32 0x36B6384B5ECA791C62761152D0C79BB0604C104A5FB6F4EB0703F3154BB3DB5 SWAP1 SWAP2 ADD SSTORE JUMP JUMPDEST PUSH2 0xA1D DUP2 PUSH2 0xA78 JUMP JUMPDEST PUSH1 0x0 PUSH2 0xA28 DUP3 PUSH2 0x129E JUMP JUMPDEST SWAP1 POP PUSH2 0xA34 DUP3 DUP3 PUSH2 0x1798 JUMP JUMPDEST POP POP JUMP JUMPDEST PUSH1 0xA SLOAD PUSH1 0x1 PUSH1 0x1 PUSH1 0xA0 SHL SUB AND DUP2 JUMP JUMPDEST PUSH1 0x0 SWAP2 DUP3 MSTORE PUSH1 0x7 PUSH1 0x20 SWAP1 DUP2 MSTORE PUSH1 0x40 DUP1 DUP5 KECCAK256 PUSH1 0x1 PUSH1 0x1 PUSH1 0xA0 SHL SUB SWAP4 SWAP1 SWAP4 AND DUP5 MSTORE SWAP2 SWAP1 MSTORE SWAP1 KECCAK256 PUSH1 0x2 ADD SLOAD SWAP1 JUMP JUMPDEST PUSH1 0x9 SLOAD DUP2 JUMP JUMPDEST PUSH1 0x0 PUSH1 0x5 DUP3 DUP2 SLOAD DUP2 LT PUSH2 0xA87 JUMPI INVALID JUMPDEST SWAP1 PUSH1 0x0 MSTORE PUSH1 0x20 PUSH1 0x0 KECCAK256 SWAP1 PUSH1 0x6 MUL ADD SWAP1 POP DUP1 PUSH1 0x2 ADD SLOAD NUMBER GT PUSH2 0xAA8 JUMPI POP PUSH2 0xB92 JUMP JUMPDEST PUSH1 0x4 DUP2 ADD SLOAD DUP1 PUSH2 0xABF JUMPI POP NUMBER PUSH1 0x2 SWAP1 SWAP2 ADD SSTORE PUSH2 0xB92 JUMP JUMPDEST PUSH2 0x1388 PUSH1 0x4 SLOAD LT ISZERO PUSH2 0xAD1 JUMPI PUSH1 0x0 PUSH1 0x3 SSTORE JUMPDEST PUSH2 0xC350 PUSH1 0x4 SLOAD LT ISZERO PUSH2 0xB13 JUMPI PUSH2 0xB0B PUSH1 0x3 SLOAD PUSH2 0x6D7 PUSH1 0x1 PUSH2 0xB05 PUSH2 0x1388 PUSH2 0x6DD PUSH2 0x1388 PUSH1 0x4 SLOAD PUSH2 0x10C8 SWAP1 SWAP2 SWAP1 PUSH4 0xFFFFFFFF AND JUMP JUMPDEST SWAP1 PUSH2 0x106E JUMP JUMPDEST PUSH1 0x3 SSTORE PUSH2 0xB25 JUMP JUMPDEST PUSH1 0x3 SLOAD PUSH2 0xB21 SWAP1 PUSH1 0xA PUSH2 0xFCC JUMP JUMPDEST PUSH1 0x3 SSTORE JUMPDEST PUSH1 0x0 PUSH2 0xB35 DUP4 PUSH1 0x2 ADD SLOAD NUMBER PUSH2 0xD7A JUMP JUMPDEST SWAP1 POP PUSH1 0x0 PUSH2 0xB5C PUSH1 0x8 SLOAD PUSH2 0x6DD DUP7 PUSH1 0x1 ADD SLOAD PUSH2 0x6D7 PUSH1 0x3 SLOAD DUP8 PUSH2 0xFCC SWAP1 SWAP2 SWAP1 PUSH4 0xFFFFFFFF AND JUMP JUMPDEST SWAP1 POP PUSH2 0xB7F PUSH2 0xB74 DUP5 PUSH2 0x6DD DUP5 PUSH5 0xE8D4A51000 PUSH2 0xFCC JUMP JUMPDEST PUSH1 0x3 DUP7 ADD SLOAD SWAP1 PUSH2 0x106E JUMP JUMPDEST PUSH1 0x3 DUP6 ADD SSTORE POP POP NUMBER PUSH1 0x2 SWAP1 SWAP3 ADD SWAP2 SWAP1 SWAP2 SSTORE POP JUMPDEST POP JUMP JUMPDEST PUSH1 0x5 SLOAD PUSH1 0x0 JUMPDEST DUP2 DUP2 LT ISZERO PUSH2 0xA34 JUMPI PUSH2 0xBAC DUP2 PUSH2 0xA78 JUMP JUMPDEST PUSH1 0x1 ADD PUSH2 0xB9B JUMP JUMPDEST PUSH2 0xBBC PUSH2 0x129A JUMP JUMPDEST PUSH1 0x0 SLOAD PUSH1 0x1 PUSH1 0x1 PUSH1 0xA0 SHL SUB SWAP1 DUP2 AND SWAP2 AND EQ PUSH2 0xC0C JUMPI PUSH1 0x40 DUP1 MLOAD PUSH3 0x461BCD PUSH1 0xE5 SHL DUP2 MSTORE PUSH1 0x20 PUSH1 0x4 DUP3 ADD DUP2 SWAP1 MSTORE PUSH1 0x24 DUP3 ADD MSTORE PUSH1 0x0 DUP1 MLOAD PUSH1 0x20 PUSH2 0x206C DUP4 CODECOPY DUP2 MLOAD SWAP2 MSTORE PUSH1 0x44 DUP3 ADD MSTORE SWAP1 MLOAD SWAP1 DUP2 SWAP1 SUB PUSH1 0x64 ADD SWAP1 REVERT JUMPDEST DUP1 ISZERO PUSH2 0xC1A JUMPI PUSH2 0xC1A PUSH2 0xB95 JUMP JUMPDEST PUSH2 0xC51 DUP3 PUSH2 0xB05 PUSH1 0x5 DUP7 DUP2 SLOAD DUP2 LT PUSH2 0xC2E JUMPI INVALID JUMPDEST SWAP1 PUSH1 0x0 MSTORE PUSH1 0x20 PUSH1 0x0 KECCAK256 SWAP1 PUSH1 0x6 MUL ADD PUSH1 0x1 ADD SLOAD PUSH1 0x8 SLOAD PUSH2 0x10C8 SWAP1 SWAP2 SWAP1 PUSH4 0xFFFFFFFF AND JUMP JUMPDEST PUSH1 0x8 DUP2 SWAP1 SSTORE POP DUP2 PUSH1 0x5 DUP5 DUP2 SLOAD DUP2 LT PUSH2 0xC65 JUMPI INVALID JUMPDEST SWAP1 PUSH1 0x0 MSTORE PUSH1 0x20 PUSH1 0x0 KECCAK256 SWAP1 PUSH1 0x6 MUL ADD PUSH1 0x1 ADD DUP2 SWAP1 SSTORE POP POP POP POP JUMP JUMPDEST PUSH2 0xC87 PUSH2 0x129A JUMP JUMPDEST PUSH1 0x0 SLOAD PUSH1 0x1 PUSH1 0x1 PUSH1 0xA0 SHL SUB SWAP1 DUP2 AND SWAP2 AND EQ PUSH2 0xCD7 JUMPI PUSH1 0x40 DUP1 MLOAD PUSH3 0x461BCD PUSH1 0xE5 SHL DUP2 MSTORE PUSH1 0x20 PUSH1 0x4 DUP3 ADD DUP2 SWAP1 MSTORE PUSH1 0x24 DUP3 ADD MSTORE PUSH1 0x0 DUP1 MLOAD PUSH1 0x20 PUSH2 0x206C DUP4 CODECOPY DUP2 MLOAD SWAP2 MSTORE PUSH1 0x44 DUP3 ADD MSTORE SWAP1 MLOAD SWAP1 DUP2 SWAP1 SUB PUSH1 0x64 ADD SWAP1 REVERT JUMPDEST PUSH1 0x0 DUP1 SLOAD PUSH1 0x40 MLOAD PUSH1 0x1 PUSH1 0x1 PUSH1 0xA0 SHL SUB SWAP1 SWAP2 AND SWAP1 PUSH32 0x8BE0079C531659141344CD1FD0A4F28419497F9722A3DAAFE3B4186F6B6457E0 SWAP1 DUP4 SWAP1 LOG3 PUSH1 0x0 DUP1 SLOAD PUSH1 0x1 PUSH1 0x1 PUSH1 0xA0 SHL SUB NOT AND SWAP1 SSTORE JUMP JUMPDEST PUSH1 0x0 DUP4 DUP2 MSTORE PUSH1 0x7 PUSH1 0x20 SWAP1 DUP2 MSTORE PUSH1 0x40 DUP1 DUP4 KECCAK256 PUSH1 0x1 PUSH1 0x1 PUSH1 0xA0 SHL SUB DUP7 AND DUP5 MSTORE SWAP1 SWAP2 MSTORE DUP2 KECCAK256 PUSH1 0x2 ADD DUP1 SLOAD DUP4 SWAP1 DUP2 LT PUSH2 0xD52 JUMPI INVALID JUMPDEST SWAP1 PUSH1 0x0 MSTORE PUSH1 0x20 PUSH1 0x0 KECCAK256 ADD SLOAD SWAP1 POP SWAP4 SWAP3 POP POP POP JUMP JUMPDEST PUSH1 0x1 DUP2 JUMP JUMPDEST PUSH1 0x0 SLOAD PUSH1 0x1 PUSH1 0x1 PUSH1 0xA0 SHL SUB AND SWAP1 JUMP JUMPDEST PUSH1 0x0 PUSH1 0x2 SLOAD DUP3 GT PUSH2 0xD9B JUMPI PUSH2 0xD94 PUSH1 0x1 PUSH2 0x6D7 DUP5 DUP7 PUSH2 0x10C8 JUMP JUMPDEST SWAP1 POP PUSH2 0x73C JUMP JUMPDEST PUSH1 0x2 SLOAD DUP4 LT PUSH2 0xDAE JUMPI PUSH2 0xD94 DUP3 DUP5 PUSH2 0x10C8 JUMP JUMPDEST PUSH2 0xD94 PUSH2 0xDC6 PUSH1 0x2 SLOAD DUP5 PUSH2 0x10C8 SWAP1 SWAP2 SWAP1 PUSH4 0xFFFFFFFF AND JUMP JUMPDEST PUSH2 0xB05 PUSH1 0x1 PUSH2 0x6D7 DUP8 PUSH1 0x2 SLOAD PUSH2 0x10C8 SWAP1 SWAP2 SWAP1 PUSH4 0xFFFFFFFF AND JUMP JUMPDEST PUSH1 0x7 PUSH1 0x20 SWAP1 DUP2 MSTORE PUSH1 0x0 SWAP3 DUP4 MSTORE PUSH1 0x40 DUP1 DUP5 KECCAK256 SWAP1 SWAP2 MSTORE SWAP1 DUP3 MSTORE SWAP1 KECCAK256 DUP1 SLOAD PUSH1 0x1 SWAP1 SWAP2 ADD SLOAD DUP3 JUMP JUMPDEST PUSH1 0x4 SLOAD DUP2 JUMP JUMPDEST PUSH3 0x13C680 DUP2 JUMP JUMPDEST PUSH1 0xC PUSH1 0x20 MSTORE PUSH1 0x0 SWAP1 DUP2 MSTORE PUSH1 0x40 SWAP1 KECCAK256 SLOAD DUP2 JUMP JUMPDEST PUSH1 0x3 SLOAD DUP2 JUMP JUMPDEST PUSH1 0x6 DUP2 DUP2 SLOAD DUP2 LT PUSH2 0xE36 JUMPI INVALID JUMPDEST PUSH1 0x0 SWAP2 DUP3 MSTORE PUSH1 0x20 SWAP1 SWAP2 KECCAK256 ADD SLOAD SWAP1 POP DUP2 JUMP JUMPDEST PUSH1 0x0 DUP2 MLOAD GT PUSH2 0xE8E JUMPI PUSH1 0x40 DUP1 MLOAD PUSH3 0x461BCD PUSH1 0xE5 SHL DUP2 MSTORE PUSH1 0x20 PUSH1 0x4 DUP3 ADD MSTORE PUSH1 0xE PUSH1 0x24 DUP3 ADD MSTORE PUSH14 0x43616E6E6F74207374616B65203 PUSH1 0x94 SHL PUSH1 0x44 DUP3 ADD MSTORE SWAP1 MLOAD SWAP1 DUP2 SWAP1 SUB PUSH1 0x64 ADD SWAP1 REVERT JUMPDEST PUSH2 0xE97 DUP3 PUSH2 0xA78 JUMP JUMPDEST PUSH1 0x0 PUSH2 0xEA3 DUP4 DUP4 PUSH2 0x18C6 JUMP JUMPDEST SWAP1 POP PUSH2 0xEAF DUP4 DUP3 PUSH2 0x1D9E JUMP JUMPDEST POP POP POP JUMP JUMPDEST PUSH2 0xEBC PUSH2 0x129A JUMP JUMPDEST PUSH1 0x0 SLOAD PUSH1 0x1 PUSH1 0x1 PUSH1 0xA0 SHL SUB SWAP1 DUP2 AND SWAP2 AND EQ PUSH2 0xF0C JUMPI PUSH1 0x40 DUP1 MLOAD PUSH3 0x461BCD PUSH1 0xE5 SHL DUP2 MSTORE PUSH1 0x20 PUSH1 0x4 DUP3 ADD DUP2 SWAP1 MSTORE PUSH1 0x24 DUP3 ADD MSTORE PUSH1 0x0 DUP1 MLOAD PUSH1 0x20 PUSH2 0x206C DUP4 CODECOPY DUP2 MLOAD SWAP2 MSTORE PUSH1 0x44 DUP3 ADD MSTORE SWAP1 MLOAD SWAP1 DUP2 SWAP1 SUB PUSH1 0x64 ADD SWAP1 REVERT JUMPDEST PUSH1 0x1 PUSH1 0x1 PUSH1 0xA0 SHL SUB DUP2 AND PUSH2 0xF51 JUMPI PUSH1 0x40 MLOAD PUSH3 0x461BCD PUSH1 0xE5 SHL DUP2 MSTORE PUSH1 0x4 ADD DUP1 DUP1 PUSH1 0x20 ADD DUP3 DUP2 SUB DUP3 MSTORE PUSH1 0x26 DUP2 MSTORE PUSH1 0x20 ADD DUP1 PUSH2 0x2025 PUSH1 0x26 SWAP2 CODECOPY PUSH1 0x40 ADD SWAP2 POP POP PUSH1 0x40 MLOAD DUP1 SWAP2 SUB SWAP1 REVERT JUMPDEST PUSH1 0x0 DUP1 SLOAD PUSH1 0x40 MLOAD PUSH1 0x1 PUSH1 0x1 PUSH1 0xA0 SHL SUB DUP1 DUP6 AND SWAP4 SWAP3 AND SWAP2 PUSH32 0x8BE0079C531659141344CD1FD0A4F28419497F9722A3DAAFE3B4186F6B6457E0 SWAP2 LOG3 PUSH1 0x0 DUP1 SLOAD PUSH1 0x1 PUSH1 0x1 PUSH1 0xA0 SHL SUB NOT AND PUSH1 0x1 PUSH1 0x1 PUSH1 0xA0 SHL SUB SWAP3 SWAP1 SWAP3 AND SWAP2 SWAP1 SWAP2 OR SWAP1 SSTORE JUMP JUMPDEST PUSH1 0xB PUSH1 0x20 SWAP1 DUP2 MSTORE PUSH1 0x0 SWAP3 DUP4 MSTORE PUSH1 0x40 DUP1 DUP5 KECCAK256 SWAP1 SWAP2 MSTORE SWAP1 DUP3 MSTORE SWAP1 KECCAK256 SLOAD PUSH1 0xFF AND DUP2 JUMP JUMPDEST PUSH1 0x0 DUP3 PUSH2 0xFDB JUMPI POP PUSH1 0x0 PUSH2 0x73C JUMP JUMPDEST DUP3 DUP3 MUL DUP3 DUP5 DUP3 DUP2 PUSH2 0xFE8 JUMPI INVALID JUMPDEST DIV EQ PUSH2 0x1025 JUMPI PUSH1 0x40 MLOAD PUSH3 0x461BCD PUSH1 0xE5 SHL DUP2 MSTORE PUSH1 0x4 ADD DUP1 DUP1 PUSH1 0x20 ADD DUP3 DUP2 SUB DUP3 MSTORE PUSH1 0x21 DUP2 MSTORE PUSH1 0x20 ADD DUP1 PUSH2 0x204B PUSH1 0x21 SWAP2 CODECOPY PUSH1 0x40 ADD SWAP2 POP POP PUSH1 0x40 MLOAD DUP1 SWAP2 SUB SWAP1 REVERT JUMPDEST SWAP4 SWAP3 POP POP POP JUMP JUMPDEST PUSH1 0x0 PUSH2 0x1025 DUP4 DUP4 PUSH1 0x40 MLOAD DUP1 PUSH1 0x40 ADD PUSH1 0x40 MSTORE DUP1 PUSH1 0x1A DUP2 MSTORE PUSH1 0x20 ADD PUSH32 0x536166654D6174683A206469766973696F6E206279207A65726F000000000000 DUP2 MSTORE POP PUSH2 0x1E89 JUMP JUMPDEST PUSH1 0x0 DUP3 DUP3 ADD DUP4 DUP2 LT ISZERO PUSH2 0x1025 JUMPI PUSH1 0x40 DUP1 MLOAD PUSH3 0x461BCD PUSH1 0xE5 SHL DUP2 MSTORE PUSH1 0x20 PUSH1 0x4 DUP3 ADD MSTORE PUSH1 0x1B PUSH1 0x24 DUP3 ADD MSTORE PUSH32 0x536166654D6174683A206164646974696F6E206F766572666C6F770000000000 PUSH1 0x44 DUP3 ADD MSTORE SWAP1 MLOAD SWAP1 DUP2 SWAP1 SUB PUSH1 0x64 ADD SWAP1 REVERT JUMPDEST PUSH1 0x0 PUSH2 0x1025 DUP4 DUP4 PUSH1 0x40 MLOAD DUP1 PUSH1 0x40 ADD PUSH1 0x40 MSTORE DUP1 PUSH1 0x1E DUP2 MSTORE PUSH1 0x20 ADD PUSH32 0x536166654D6174683A207375627472616374696F6E206F766572666C6F770000 DUP2 MSTORE POP PUSH2 0x1F2B JUMP JUMPDEST PUSH1 0x1 SLOAD PUSH1 0x40 DUP1 MLOAD PUSH4 0x70A08231 PUSH1 0xE0 SHL DUP2 MSTORE ADDRESS PUSH1 0x4 DUP3 ADD MSTORE SWAP1 MLOAD PUSH1 0x0 SWAP3 PUSH1 0x1 PUSH1 0x1 PUSH1 0xA0 SHL SUB AND SWAP2 PUSH4 0x70A08231 SWAP2 PUSH1 0x24 DUP1 DUP4 ADD SWAP3 PUSH1 0x20 SWAP3 SWAP2 SWAP1 DUP3 SWAP1 SUB ADD DUP2 DUP7 DUP1 EXTCODESIZE ISZERO DUP1 ISZERO PUSH2 0x1155 JUMPI PUSH1 0x0 DUP1 REVERT JUMPDEST POP GAS STATICCALL ISZERO DUP1 ISZERO PUSH2 0x1169 JUMPI RETURNDATASIZE PUSH1 0x0 DUP1 RETURNDATACOPY RETURNDATASIZE PUSH1 0x0 REVERT JUMPDEST POP POP POP POP PUSH1 0x40 MLOAD RETURNDATASIZE PUSH1 0x20 DUP2 LT ISZERO PUSH2 0x117F JUMPI PUSH1 0x0 DUP1 REVERT JUMPDEST POP MLOAD SWAP1 POP DUP1 DUP3 GT ISZERO PUSH2 0x1213 JUMPI PUSH1 0x1 SLOAD PUSH1 0x40 DUP1 MLOAD PUSH4 0xA9059CBB PUSH1 0xE0 SHL DUP2 MSTORE PUSH1 0x1 PUSH1 0x1 PUSH1 0xA0 SHL SUB DUP7 DUP2 AND PUSH1 0x4 DUP4 ADD MSTORE PUSH1 0x24 DUP3 ADD DUP6 SWAP1 MSTORE SWAP2 MLOAD SWAP2 SWAP1 SWAP3 AND SWAP2 PUSH4 0xA9059CBB SWAP2 PUSH1 0x44 DUP1 DUP4 ADD SWAP3 PUSH1 0x20 SWAP3 SWAP2 SWAP1 DUP3 SWAP1 SUB ADD DUP2 PUSH1 0x0 DUP8 DUP1 EXTCODESIZE ISZERO DUP1 ISZERO PUSH2 0x11E1 JUMPI PUSH1 0x0 DUP1 REVERT JUMPDEST POP GAS CALL ISZERO DUP1 ISZERO PUSH2 0x11F5 JUMPI RETURNDATASIZE PUSH1 0x0 DUP1 RETURNDATACOPY RETURNDATASIZE PUSH1 0x0 REVERT JUMPDEST POP POP POP POP PUSH1 0x40 MLOAD RETURNDATASIZE PUSH1 0x20 DUP2 LT ISZERO PUSH2 0x120B JUMPI PUSH1 0x0 DUP1 REVERT JUMPDEST POP PUSH2 0xEAF SWAP1 POP JUMP JUMPDEST PUSH1 0x1 SLOAD PUSH1 0x40 DUP1 MLOAD PUSH4 0xA9059CBB PUSH1 0xE0 SHL DUP2 MSTORE PUSH1 0x1 PUSH1 0x1 PUSH1 0xA0 SHL SUB DUP7 DUP2 AND PUSH1 0x4 DUP4 ADD MSTORE PUSH1 0x24 DUP3 ADD DUP7 SWAP1 MSTORE SWAP2 MLOAD SWAP2 SWAP1 SWAP3 AND SWAP2 PUSH4 0xA9059CBB SWAP2 PUSH1 0x44 DUP1 DUP4 ADD SWAP3 PUSH1 0x20 SWAP3 SWAP2 SWAP1 DUP3 SWAP1 SUB ADD DUP2 PUSH1 0x0 DUP8 DUP1 EXTCODESIZE ISZERO DUP1 ISZERO PUSH2 0x1269 JUMPI PUSH1 0x0 DUP1 REVERT JUMPDEST POP GAS CALL ISZERO DUP1 ISZERO PUSH2 0x127D JUMPI RETURNDATASIZE PUSH1 0x0 DUP1 RETURNDATACOPY RETURNDATASIZE PUSH1 0x0 REVERT JUMPDEST POP POP POP POP PUSH1 0x40 MLOAD RETURNDATASIZE PUSH1 0x20 DUP2 LT ISZERO PUSH2 0x1293 JUMPI PUSH1 0x0 DUP1 REVERT JUMPDEST POP POP POP POP POP JUMP JUMPDEST CALLER SWAP1 JUMP JUMPDEST PUSH1 0x0 DUP1 PUSH1 0x5 DUP4 DUP2 SLOAD DUP2 LT PUSH2 0x12AE JUMPI INVALID JUMPDEST PUSH1 0x0 SWAP2 DUP3 MSTORE PUSH1 0x20 DUP1 DUP4 KECCAK256 DUP7 DUP5 MSTORE PUSH1 0x7 DUP3 MSTORE PUSH1 0x40 DUP1 DUP6 KECCAK256 CALLER DUP7 MSTORE SWAP1 SWAP3 MSTORE SWAP3 KECCAK256 PUSH1 0x2 DUP2 ADD SLOAD PUSH1 0x6 SWAP1 SWAP3 MUL SWAP1 SWAP3 ADD SWAP3 POP DUP1 ISZERO DUP1 PUSH2 0x1302 JUMPI POP PUSH1 0x0 DUP6 DUP2 MSTORE PUSH1 0x7 PUSH1 0x20 SWAP1 DUP2 MSTORE PUSH1 0x40 DUP1 DUP4 KECCAK256 CALLER DUP5 MSTORE SWAP1 SWAP2 MSTORE SWAP1 KECCAK256 PUSH1 0x2 ADD SLOAD ISZERO JUMPDEST ISZERO PUSH2 0x1313 JUMPI PUSH1 0x0 SWAP4 POP POP POP POP PUSH2 0x1793 JUMP JUMPDEST PUSH1 0x0 PUSH1 0x60 PUSH1 0x0 DUP1 PUSH1 0xD SLOAD DUP6 GT ISZERO PUSH2 0x1374 JUMPI POP PUSH1 0xD SLOAD DUP1 DUP6 SUB SWAP1 PUSH8 0xFFFFFFFFFFFFFFFF DUP2 GT DUP1 ISZERO PUSH2 0x1342 JUMPI PUSH1 0x0 DUP1 REVERT JUMPDEST POP PUSH1 0x40 MLOAD SWAP1 DUP1 DUP3 MSTORE DUP1 PUSH1 0x20 MUL PUSH1 0x20 ADD DUP3 ADD PUSH1 0x40 MSTORE DUP1 ISZERO PUSH2 0x136C JUMPI DUP2 PUSH1 0x20 ADD PUSH1 0x20 DUP3 MUL DUP1 CALLDATASIZE DUP4 CALLDATACOPY ADD SWAP1 POP JUMPDEST POP SWAP3 POP PUSH2 0x13B9 JUMP JUMPDEST DUP5 PUSH8 0xFFFFFFFFFFFFFFFF DUP2 GT DUP1 ISZERO PUSH2 0x138B JUMPI PUSH1 0x0 DUP1 REVERT JUMPDEST POP PUSH1 0x40 MLOAD SWAP1 DUP1 DUP3 MSTORE DUP1 PUSH1 0x20 MUL PUSH1 0x20 ADD DUP3 ADD PUSH1 0x40 MSTORE DUP1 ISZERO PUSH2 0x13B5 JUMPI DUP2 PUSH1 0x20 ADD PUSH1 0x20 DUP3 MUL DUP1 CALLDATASIZE DUP4 CALLDATACOPY ADD SWAP1 POP JUMPDEST POP SWAP3 POP JUMPDEST PUSH1 0x0 NOT DUP6 ADD JUMPDEST DUP2 DUP2 LT PUSH2 0x16BE JUMPI DUP7 PUSH1 0x2 ADD DUP2 DUP2 SLOAD DUP2 LT PUSH2 0x13D5 JUMPI INVALID JUMPDEST SWAP1 PUSH1 0x0 MSTORE PUSH1 0x20 PUSH1 0x0 KECCAK256 ADD SLOAD SWAP5 POP PUSH3 0x13C680 PUSH2 0x1419 PUSH3 0x151800 PUSH2 0x1413 PUSH1 0xC PUSH1 0x0 DUP11 DUP2 MSTORE PUSH1 0x20 ADD SWAP1 DUP2 MSTORE PUSH1 0x20 ADD PUSH1 0x0 KECCAK256 SLOAD TIMESTAMP PUSH2 0x10C8 SWAP1 SWAP2 SWAP1 PUSH4 0xFFFFFFFF AND JUMP JUMPDEST SWAP1 PUSH2 0x1F85 JUMP JUMPDEST LT ISZERO PUSH2 0x1463 JUMPI PUSH1 0x40 DUP1 MLOAD PUSH3 0x461BCD PUSH1 0xE5 SHL DUP2 MSTORE PUSH1 0x20 PUSH1 0x4 DUP3 ADD MSTORE PUSH1 0x14 PUSH1 0x24 DUP3 ADD MSTORE PUSH20 0x456E6C6F7567682054696D6520746F206C6F636B PUSH1 0x60 SHL PUSH1 0x44 DUP3 ADD MSTORE SWAP1 MLOAD SWAP1 DUP2 SWAP1 SUB PUSH1 0x64 ADD SWAP1 REVERT JUMPDEST DUP8 SLOAD PUSH1 0x40 DUP1 MLOAD PUSH4 0x7567A6F PUSH1 0xE4 SHL DUP2 MSTORE PUSH1 0x4 DUP2 ADD DUP9 SWAP1 MSTORE SWAP1 MLOAD PUSH1 0x0 SWAP3 DUP4 SWAP3 PUSH1 0x1 PUSH1 0x1 PUSH1 0xA0 SHL SUB SWAP1 SWAP2 AND SWAP2 PUSH4 0x7567A6F0 SWAP2 PUSH1 0x24 DUP1 DUP3 ADD SWAP3 DUP7 SWAP3 SWAP1 SWAP2 SWAP1 DUP3 SWAP1 SUB ADD DUP2 DUP7 DUP1 EXTCODESIZE ISZERO DUP1 ISZERO PUSH2 0x14B2 JUMPI PUSH1 0x0 DUP1 REVERT JUMPDEST POP GAS STATICCALL ISZERO DUP1 ISZERO PUSH2 0x14C6 JUMPI RETURNDATASIZE PUSH1 0x0 DUP1 RETURNDATACOPY RETURNDATASIZE PUSH1 0x0 REVERT JUMPDEST POP POP POP POP PUSH1 0x40 MLOAD RETURNDATASIZE PUSH1 0x0 DUP3 RETURNDATACOPY PUSH1 0x1F RETURNDATASIZE SWAP1 DUP2 ADD PUSH1 0x1F NOT AND DUP3 ADD PUSH1 0x40 MSTORE PUSH1 0xC0 DUP2 LT ISZERO PUSH2 0x14EF JUMPI PUSH1 0x0 DUP1 REVERT JUMPDEST DUP2 MLOAD PUSH1 0x20 DUP4 ADD DUP1 MLOAD PUSH1 0x40 MLOAD SWAP3 SWAP5 SWAP3 SWAP4 DUP4 ADD SWAP3 SWAP2 SWAP1 DUP5 PUSH5 0x100000000 DUP3 GT ISZERO PUSH2 0x1516 JUMPI PUSH1 0x0 DUP1 REVERT JUMPDEST SWAP1 DUP4 ADD SWAP1 PUSH1 0x20 DUP3 ADD DUP6 DUP2 GT ISZERO PUSH2 0x152B JUMPI PUSH1 0x0 DUP1 REVERT JUMPDEST DUP3 MLOAD PUSH5 0x100000000 DUP2 GT DUP3 DUP3 ADD DUP9 LT OR ISZERO PUSH2 0x1545 JUMPI PUSH1 0x0 DUP1 REVERT JUMPDEST DUP3 MSTORE POP DUP2 MLOAD PUSH1 0x20 SWAP2 DUP3 ADD SWAP3 SWAP1 SWAP2 ADD SWAP1 DUP1 DUP4 DUP4 PUSH1 0x0 JUMPDEST DUP4 DUP2 LT ISZERO PUSH2 0x1572 JUMPI DUP2 DUP2 ADD MLOAD DUP4 DUP3 ADD MSTORE PUSH1 0x20 ADD PUSH2 0x155A JUMP JUMPDEST POP POP POP POP SWAP1 POP SWAP1 DUP2 ADD SWAP1 PUSH1 0x1F AND DUP1 ISZERO PUSH2 0x159F JUMPI DUP1 DUP3 SUB DUP1 MLOAD PUSH1 0x1 DUP4 PUSH1 0x20 SUB PUSH2 0x100 EXP SUB NOT AND DUP2 MSTORE PUSH1 0x20 ADD SWAP2 POP JUMPDEST POP PUSH1 0x40 SWAP1 DUP2 MSTORE PUSH1 0x20 DUP3 ADD MLOAD SWAP2 ADD MLOAD PUSH1 0x6 DUP1 SLOAD SWAP3 SWAP9 POP SWAP1 SWAP7 POP SWAP5 POP PUSH1 0x0 NOT DUP8 ADD SWAP4 POP DUP4 LT SWAP2 POP PUSH2 0x15CC SWAP1 POP JUMPI INVALID JUMPDEST PUSH1 0x0 SWAP2 DUP3 MSTORE PUSH1 0x20 SWAP1 SWAP2 KECCAK256 ADD SLOAD PUSH1 0x4 DUP1 SLOAD SWAP2 SWAP1 SWAP2 SUB SWAP1 SSTORE PUSH2 0x15EC DUP12 DUP3 PUSH2 0x106E JUMP JUMPDEST SWAP11 POP DUP7 DUP7 DUP7 DUP2 MLOAD DUP2 LT PUSH2 0x15FB JUMPI INVALID JUMPDEST PUSH1 0x20 SWAP1 DUP2 MUL SWAP2 SWAP1 SWAP2 ADD ADD MSTORE PUSH1 0x2 DUP10 ADD DUP1 SLOAD PUSH1 0x1 SWAP1 SWAP7 ADD SWAP6 DUP1 PUSH2 0x1619 JUMPI INVALID JUMPDEST PUSH1 0x0 DUP3 DUP2 MSTORE PUSH1 0x20 DUP1 DUP3 KECCAK256 DUP4 ADD PUSH1 0x0 NOT SWAP1 DUP2 ADD DUP4 SWAP1 SSTORE SWAP1 SWAP3 ADD SWAP1 SWAP3 SSTORE CALLER DUP3 MSTORE PUSH1 0xB DUP2 MSTORE PUSH1 0x40 DUP1 DUP4 KECCAK256 DUP11 DUP5 MSTORE DUP3 MSTORE DUP1 DUP4 KECCAK256 DUP1 SLOAD PUSH1 0xFF NOT AND SWAP1 SSTORE PUSH1 0xC SWAP1 SWAP2 MSTORE DUP2 KECCAK256 SSTORE PUSH1 0x5 DUP11 ADD SLOAD PUSH2 0x1668 SWAP1 PUSH1 0x1 PUSH2 0x10C8 JUMP JUMPDEST PUSH1 0x5 DUP12 ADD SSTORE DUP3 DUP5 EQ ISZERO PUSH2 0x167C JUMPI POP POP PUSH2 0x16BE JUMP JUMPDEST PUSH1 0x40 DUP1 MLOAD DUP9 DUP2 MSTORE SWAP1 MLOAD DUP14 SWAP2 CALLER SWAP2 PUSH32 0x72669F1ABC5C863B907B781DB14A7BAB022278D6436116140679C6BCA956BA0C SWAP2 DUP2 SWAP1 SUB PUSH1 0x20 ADD SWAP1 LOG3 POP POP PUSH1 0x0 NOT ADD PUSH2 0x13BF JUMP JUMPDEST POP PUSH1 0x4 DUP8 ADD SLOAD PUSH2 0x16CE SWAP1 DUP10 PUSH2 0x10C8 JUMP JUMPDEST PUSH1 0x4 DUP1 DUP10 ADD SWAP2 SWAP1 SWAP2 SSTORE DUP8 SLOAD PUSH1 0x40 MLOAD PUSH3 0xD1807B PUSH1 0xE2 SHL DUP2 MSTORE ADDRESS SWAP3 DUP2 ADD DUP4 DUP2 MSTORE CALLER PUSH1 0x24 DUP4 ADD DUP2 SWAP1 MSTORE PUSH1 0x60 PUSH1 0x44 DUP5 ADD SWAP1 DUP2 MSTORE DUP9 MLOAD PUSH1 0x64 DUP6 ADD MSTORE DUP9 MLOAD PUSH1 0x1 PUSH1 0x1 PUSH1 0xA0 SHL SUB SWAP1 SWAP6 AND SWAP6 PUSH4 0x34601EC SWAP6 SWAP1 SWAP5 SWAP3 SWAP4 DUP11 SWAP4 SWAP1 SWAP3 SWAP2 PUSH1 0x84 SWAP1 SWAP2 ADD SWAP1 PUSH1 0x20 DUP1 DUP7 ADD SWAP2 MUL DUP1 DUP4 DUP4 PUSH1 0x0 JUMPDEST DUP4 DUP2 LT ISZERO PUSH2 0x174C JUMPI DUP2 DUP2 ADD MLOAD DUP4 DUP3 ADD MSTORE PUSH1 0x20 ADD PUSH2 0x1734 JUMP JUMPDEST POP POP POP POP SWAP1 POP ADD SWAP5 POP POP POP POP POP PUSH1 0x0 PUSH1 0x40 MLOAD DUP1 DUP4 SUB DUP2 PUSH1 0x0 DUP8 DUP1 EXTCODESIZE ISZERO DUP1 ISZERO PUSH2 0x1773 JUMPI PUSH1 0x0 DUP1 REVERT JUMPDEST POP GAS CALL ISZERO DUP1 ISZERO PUSH2 0x1787 JUMPI RETURNDATASIZE PUSH1 0x0 DUP1 RETURNDATACOPY RETURNDATASIZE PUSH1 0x0 REVERT JUMPDEST POP POP POP POP POP POP POP POP POP POP POP JUMPDEST SWAP2 SWAP1 POP JUMP JUMPDEST PUSH1 0x0 PUSH1 0x5 DUP4 DUP2 SLOAD DUP2 LT PUSH2 0x17A7 JUMPI INVALID JUMPDEST PUSH1 0x0 SWAP2 DUP3 MSTORE PUSH1 0x20 DUP1 DUP4 KECCAK256 DUP7 DUP5 MSTORE PUSH1 0x7 DUP3 MSTORE PUSH1 0x40 DUP1 DUP6 KECCAK256 CALLER DUP7 MSTORE SWAP1 SWAP3 MSTORE SWAP3 KECCAK256 DUP1 SLOAD PUSH1 0x6 SWAP1 SWAP3 MUL SWAP1 SWAP3 ADD SWAP3 POP DUP4 GT ISZERO PUSH2 0x181A JUMPI PUSH1 0x40 DUP1 MLOAD PUSH3 0x461BCD PUSH1 0xE5 SHL DUP2 MSTORE PUSH1 0x20 PUSH1 0x4 DUP3 ADD MSTORE PUSH1 0x12 PUSH1 0x24 DUP3 ADD MSTORE PUSH18 0x1DDA5D1A191C985DCE881B9BDD0819DBDBD9 PUSH1 0x72 SHL PUSH1 0x44 DUP3 ADD MSTORE SWAP1 MLOAD SWAP1 DUP2 SWAP1 SUB PUSH1 0x64 ADD SWAP1 REVERT JUMPDEST PUSH1 0x0 PUSH2 0x1848 DUP3 PUSH1 0x1 ADD SLOAD PUSH2 0x72F PUSH5 0xE8D4A51000 PUSH2 0x6DD DUP8 PUSH1 0x3 ADD SLOAD DUP8 PUSH1 0x0 ADD SLOAD PUSH2 0xFCC SWAP1 SWAP2 SWAP1 PUSH4 0xFFFFFFFF AND JUMP JUMPDEST SWAP1 POP DUP1 ISZERO PUSH2 0x185A JUMPI PUSH2 0x185A CALLER DUP3 PUSH2 0x110A JUMP JUMPDEST DUP2 SLOAD PUSH2 0x1866 SWAP1 DUP6 PUSH2 0x10C8 JUMP JUMPDEST DUP1 DUP4 SSTORE PUSH1 0x3 DUP5 ADD SLOAD PUSH2 0x1883 SWAP2 PUSH5 0xE8D4A51000 SWAP2 PUSH2 0x6DD SWAP2 SWAP1 PUSH2 0xFCC JUMP JUMPDEST PUSH1 0x1 DUP4 ADD SSTORE PUSH1 0x40 DUP1 MLOAD DUP6 DUP2 MSTORE SWAP1 MLOAD DUP7 SWAP2 CALLER SWAP2 PUSH32 0xF279E6A1F5E320CCA91135676D9CB6E44CA8A08C0B88342BCDB1144F6511B568 SWAP2 DUP2 SWAP1 SUB PUSH1 0x20 ADD SWAP1 LOG3 POP POP POP POP POP JUMP JUMPDEST PUSH1 0x0 DUP1 PUSH1 0x5 DUP5 DUP2 SLOAD DUP2 LT PUSH2 0x18D6 JUMPI INVALID JUMPDEST PUSH1 0x0 SWAP2 DUP3 MSTORE PUSH1 0x20 DUP1 DUP4 KECCAK256 DUP8 DUP5 MSTORE PUSH1 0x7 DUP3 MSTORE PUSH1 0x40 DUP1 DUP6 KECCAK256 CALLER DUP7 MSTORE SWAP1 SWAP3 MSTORE SWAP1 DUP4 KECCAK256 DUP7 MLOAD PUSH1 0xD SLOAD PUSH1 0x6 SWAP1 SWAP5 MUL SWAP1 SWAP3 ADD SWAP5 POP SWAP3 SWAP1 SWAP2 DUP3 GT ISZERO PUSH2 0x195B JUMPI PUSH1 0x40 DUP1 MLOAD PUSH3 0x461BCD PUSH1 0xE5 SHL DUP2 MSTORE PUSH1 0x20 PUSH1 0x4 DUP3 ADD MSTORE PUSH1 0x1E PUSH1 0x24 DUP3 ADD MSTORE PUSH32 0x63616E206E6F7420626967207468656E206D617857697468416D6F756E740000 PUSH1 0x44 DUP3 ADD MSTORE SWAP1 MLOAD SWAP1 DUP2 SWAP1 SUB PUSH1 0x64 ADD SWAP1 REVERT JUMPDEST PUSH1 0x0 JUMPDEST DUP3 DUP2 LT ISZERO PUSH2 0x1CB3 JUMPI DUP7 DUP2 DUP2 MLOAD DUP2 LT PUSH2 0x1972 JUMPI INVALID JUMPDEST PUSH1 0x20 SWAP1 DUP2 MUL SWAP2 SWAP1 SWAP2 ADD DUP2 ADD MLOAD CALLER PUSH1 0x0 SWAP1 DUP2 MSTORE PUSH1 0xB DUP4 MSTORE PUSH1 0x40 DUP1 DUP3 KECCAK256 DUP4 DUP4 MSTORE SWAP1 SWAP4 MSTORE SWAP2 SWAP1 SWAP2 KECCAK256 SLOAD SWAP1 SWAP3 POP PUSH1 0xFF AND ISZERO PUSH2 0x19DF JUMPI PUSH1 0x40 DUP1 MLOAD PUSH3 0x461BCD PUSH1 0xE5 SHL DUP2 MSTORE PUSH1 0x20 PUSH1 0x4 DUP3 ADD MSTORE PUSH1 0xC PUSH1 0x24 DUP3 ADD MSTORE PUSH12 0x185B1C9958591E48195E1A5D PUSH1 0xA2 SHL PUSH1 0x44 DUP3 ADD MSTORE SWAP1 MLOAD SWAP1 DUP2 SWAP1 SUB PUSH1 0x64 ADD SWAP1 REVERT JUMPDEST DUP5 SLOAD PUSH1 0x40 DUP1 MLOAD PUSH4 0x31A9108F PUSH1 0xE1 SHL DUP2 MSTORE PUSH1 0x4 DUP2 ADD DUP6 SWAP1 MSTORE SWAP1 MLOAD CALLER SWAP3 PUSH1 0x1 PUSH1 0x1 PUSH1 0xA0 SHL SUB AND SWAP2 PUSH4 0x6352211E SWAP2 PUSH1 0x24 DUP1 DUP4 ADD SWAP3 PUSH1 0x20 SWAP3 SWAP2 SWAP1 DUP3 SWAP1 SUB ADD DUP2 PUSH1 0x0 DUP8 DUP1 EXTCODESIZE ISZERO DUP1 ISZERO PUSH2 0x1A2B JUMPI PUSH1 0x0 DUP1 REVERT JUMPDEST POP GAS CALL ISZERO DUP1 ISZERO PUSH2 0x1A3F JUMPI RETURNDATASIZE PUSH1 0x0 DUP1 RETURNDATACOPY RETURNDATASIZE PUSH1 0x0 REVERT JUMPDEST POP POP POP POP PUSH1 0x40 MLOAD RETURNDATASIZE PUSH1 0x20 DUP2 LT ISZERO PUSH2 0x1A55 JUMPI PUSH1 0x0 DUP1 REVERT JUMPDEST POP MLOAD PUSH1 0x1 PUSH1 0x1 PUSH1 0xA0 SHL SUB AND EQ PUSH2 0x1AA0 JUMPI PUSH1 0x40 DUP1 MLOAD PUSH3 0x461BCD PUSH1 0xE5 SHL DUP2 MSTORE PUSH1 0x20 PUSH1 0x4 DUP3 ADD MSTORE PUSH1 0xB PUSH1 0x24 DUP3 ADD MSTORE PUSH11 0x3737BA1037BBB732B927B3 PUSH1 0xA9 SHL PUSH1 0x44 DUP3 ADD MSTORE SWAP1 MLOAD SWAP1 DUP2 SWAP1 SUB PUSH1 0x64 ADD SWAP1 REVERT JUMPDEST PUSH1 0x0 DUP3 DUP2 MSTORE PUSH1 0xC PUSH1 0x20 MSTORE PUSH1 0x40 DUP1 DUP3 KECCAK256 TIMESTAMP SWAP1 SSTORE DUP7 SLOAD DUP2 MLOAD PUSH4 0x7567A6F PUSH1 0xE4 SHL DUP2 MSTORE PUSH1 0x4 DUP2 ADD DUP7 SWAP1 MSTORE SWAP2 MLOAD DUP4 SWAP3 PUSH1 0x1 PUSH1 0x1 PUSH1 0xA0 SHL SUB SWAP1 SWAP3 AND SWAP2 PUSH4 0x7567A6F0 SWAP2 PUSH1 0x24 DUP1 DUP4 ADD SWAP3 DUP7 SWAP3 SWAP2 SWAP1 DUP3 SWAP1 SUB ADD DUP2 DUP7 DUP1 EXTCODESIZE ISZERO DUP1 ISZERO PUSH2 0x1AFB JUMPI PUSH1 0x0 DUP1 REVERT JUMPDEST POP GAS STATICCALL ISZERO DUP1 ISZERO PUSH2 0x1B0F JUMPI RETURNDATASIZE PUSH1 0x0 DUP1 RETURNDATACOPY RETURNDATASIZE PUSH1 0x0 REVERT JUMPDEST POP POP POP POP PUSH1 0x40 MLOAD RETURNDATASIZE PUSH1 0x0 DUP3 RETURNDATACOPY PUSH1 0x1F RETURNDATASIZE SWAP1 DUP2 ADD PUSH1 0x1F NOT AND DUP3 ADD PUSH1 0x40 MSTORE PUSH1 0xC0 DUP2 LT ISZERO PUSH2 0x1B38 JUMPI PUSH1 0x0 DUP1 REVERT JUMPDEST DUP2 MLOAD PUSH1 0x20 DUP4 ADD DUP1 MLOAD PUSH1 0x40 MLOAD SWAP3 SWAP5 SWAP3 SWAP4 DUP4 ADD SWAP3 SWAP2 SWAP1 DUP5 PUSH5 0x100000000 DUP3 GT ISZERO PUSH2 0x1B5F JUMPI PUSH1 0x0 DUP1 REVERT JUMPDEST SWAP1 DUP4 ADD SWAP1 PUSH1 0x20 DUP3 ADD DUP6 DUP2 GT ISZERO PUSH2 0x1B74 JUMPI PUSH1 0x0 DUP1 REVERT JUMPDEST DUP3 MLOAD PUSH5 0x100000000 DUP2 GT DUP3 DUP3 ADD DUP9 LT OR ISZERO PUSH2 0x1B8E JUMPI PUSH1 0x0 DUP1 REVERT JUMPDEST DUP3 MSTORE POP DUP2 MLOAD PUSH1 0x20 SWAP2 DUP3 ADD SWAP3 SWAP1 SWAP2 ADD SWAP1 DUP1 DUP4 DUP4 PUSH1 0x0 JUMPDEST DUP4 DUP2 LT ISZERO PUSH2 0x1BBB JUMPI DUP2 DUP2 ADD MLOAD DUP4 DUP3 ADD MSTORE PUSH1 0x20 ADD PUSH2 0x1BA3 JUMP JUMPDEST POP POP POP POP SWAP1 POP SWAP1 DUP2 ADD SWAP1 PUSH1 0x1F AND DUP1 ISZERO PUSH2 0x1BE8 JUMPI DUP1 DUP3 SUB DUP1 MLOAD PUSH1 0x1 DUP4 PUSH1 0x20 SUB PUSH2 0x100 EXP SUB NOT AND DUP2 MSTORE PUSH1 0x20 ADD SWAP2 POP JUMPDEST POP PUSH1 0x40 SWAP1 DUP2 MSTORE PUSH1 0x20 DUP3 ADD MLOAD SWAP2 ADD MLOAD PUSH1 0x6 DUP1 SLOAD SWAP3 SWAP9 POP SWAP1 SWAP7 POP SWAP5 POP PUSH1 0x0 NOT DUP8 ADD SWAP4 POP DUP4 LT SWAP2 POP PUSH2 0x1C15 SWAP1 POP JUMPI INVALID JUMPDEST PUSH1 0x0 SWAP2 DUP3 MSTORE PUSH1 0x20 SWAP1 SWAP2 KECCAK256 ADD SLOAD PUSH1 0x4 DUP1 SLOAD SWAP1 SWAP2 ADD SWAP1 SSTORE PUSH2 0x1C34 DUP9 DUP3 PUSH2 0x106E JUMP JUMPDEST CALLER PUSH1 0x0 DUP2 DUP2 MSTORE PUSH1 0xB PUSH1 0x20 SWAP1 DUP2 MSTORE PUSH1 0x40 DUP1 DUP4 KECCAK256 DUP10 DUP5 MSTORE DUP3 MSTORE DUP1 DUP4 KECCAK256 DUP1 SLOAD PUSH1 0xFF NOT AND PUSH1 0x1 SWAP1 DUP2 OR SWAP1 SWAP2 SSTORE PUSH1 0x2 DUP13 ADD DUP1 SLOAD SWAP2 DUP3 ADD DUP2 SSTORE DUP5 MSTORE SWAP3 DUP3 SWAP1 KECCAK256 SWAP1 SWAP3 ADD DUP9 SWAP1 SSTORE DUP2 MLOAD DUP9 DUP2 MSTORE SWAP2 MLOAD SWAP4 SWAP12 POP DUP14 SWAP4 PUSH32 0x2C6E00D05C9537687E3346C6BB423B06C873979206B8D425DDBB4F9B436E0582 SWAP3 DUP2 SWAP1 SUB SWAP1 SWAP2 ADD SWAP1 LOG3 POP POP PUSH1 0x1 ADD PUSH2 0x195E JUMP JUMPDEST POP PUSH1 0x5 DUP5 ADD SLOAD PUSH2 0x1CC3 SWAP1 DUP4 PUSH2 0x106E JUMP JUMPDEST PUSH1 0x5 DUP6 ADD SSTORE PUSH1 0x4 DUP5 ADD SLOAD PUSH2 0x1CD7 SWAP1 DUP7 PUSH2 0x106E JUMP JUMPDEST PUSH1 0x4 DUP1 DUP7 ADD SWAP2 SWAP1 SWAP2 SSTORE DUP5 SLOAD PUSH1 0x40 MLOAD PUSH3 0xD1807B PUSH1 0xE2 SHL DUP2 MSTORE CALLER SWAP3 DUP2 ADD DUP4 DUP2 MSTORE ADDRESS PUSH1 0x24 DUP4 ADD DUP2 SWAP1 MSTORE PUSH1 0x60 PUSH1 0x44 DUP5 ADD SWAP1 DUP2 MSTORE DUP12 MLOAD PUSH1 0x64 DUP6 ADD MSTORE DUP12 MLOAD PUSH1 0x1 PUSH1 0x1 PUSH1 0xA0 SHL SUB SWAP1 SWAP6 AND SWAP6 PUSH4 0x34601EC SWAP6 SWAP1 SWAP5 SWAP3 SWAP4 DUP14 SWAP4 SWAP1 SWAP3 SWAP2 PUSH1 0x84 SWAP1 SWAP2 ADD SWAP1 PUSH1 0x20 DUP1 DUP7 ADD SWAP2 MUL DUP1 DUP4 DUP4 PUSH1 0x0 JUMPDEST DUP4 DUP2 LT ISZERO PUSH2 0x1D55 JUMPI DUP2 DUP2 ADD MLOAD DUP4 DUP3 ADD MSTORE PUSH1 0x20 ADD PUSH2 0x1D3D JUMP JUMPDEST POP POP POP POP SWAP1 POP ADD SWAP5 POP POP POP POP POP PUSH1 0x0 PUSH1 0x40 MLOAD DUP1 DUP4 SUB DUP2 PUSH1 0x0 DUP8 DUP1 EXTCODESIZE ISZERO DUP1 ISZERO PUSH2 0x1D7C JUMPI PUSH1 0x0 DUP1 REVERT JUMPDEST POP GAS CALL ISZERO DUP1 ISZERO PUSH2 0x1D90 JUMPI RETURNDATASIZE PUSH1 0x0 DUP1 RETURNDATACOPY RETURNDATASIZE PUSH1 0x0 REVERT JUMPDEST POP POP POP POP POP POP POP POP SWAP3 SWAP2 POP POP JUMP JUMPDEST PUSH1 0x0 PUSH1 0x5 DUP4 DUP2 SLOAD DUP2 LT PUSH2 0x1DAD JUMPI INVALID JUMPDEST PUSH1 0x0 SWAP2 DUP3 MSTORE PUSH1 0x20 DUP1 DUP4 KECCAK256 DUP7 DUP5 MSTORE PUSH1 0x7 DUP3 MSTORE PUSH1 0x40 DUP1 DUP6 KECCAK256 CALLER DUP7 MSTORE SWAP1 SWAP3 MSTORE SWAP3 KECCAK256 DUP1 SLOAD PUSH1 0x6 SWAP1 SWAP3 MUL SWAP1 SWAP3 ADD SWAP3 POP ISZERO PUSH2 0x1E1E JUMPI PUSH1 0x0 PUSH2 0x1E0A DUP3 PUSH1 0x1 ADD SLOAD PUSH2 0x72F PUSH5 0xE8D4A51000 PUSH2 0x6DD DUP8 PUSH1 0x3 ADD SLOAD DUP8 PUSH1 0x0 ADD SLOAD PUSH2 0xFCC SWAP1 SWAP2 SWAP1 PUSH4 0xFFFFFFFF AND JUMP JUMPDEST SWAP1 POP DUP1 ISZERO PUSH2 0x1E1C JUMPI PUSH2 0x1E1C CALLER DUP3 PUSH2 0x110A JUMP JUMPDEST POP JUMPDEST DUP1 SLOAD PUSH2 0x1E2A SWAP1 DUP5 PUSH2 0x106E JUMP JUMPDEST DUP1 DUP3 SSTORE PUSH1 0x3 DUP4 ADD SLOAD PUSH2 0x1E47 SWAP2 PUSH5 0xE8D4A51000 SWAP2 PUSH2 0x6DD SWAP2 SWAP1 PUSH2 0xFCC JUMP JUMPDEST PUSH1 0x1 DUP3 ADD SSTORE PUSH1 0x40 DUP1 MLOAD DUP5 DUP2 MSTORE SWAP1 MLOAD DUP6 SWAP2 CALLER SWAP2 PUSH32 0x90890809C654F11D6E72A28FA60149770A0D11EC6C92319D6CEB2BB0A4EA1A15 SWAP2 DUP2 SWAP1 SUB PUSH1 0x20 ADD SWAP1 LOG3 POP POP POP POP JUMP JUMPDEST PUSH1 0x0 DUP2 DUP4 PUSH2 0x1F15 JUMPI PUSH1 0x40 MLOAD PUSH3 0x461BCD PUSH1 0xE5 SHL DUP2 MSTORE PUSH1 0x4 ADD DUP1 DUP1 PUSH1 0x20 ADD DUP3 DUP2 SUB DUP3 MSTORE DUP4 DUP2 DUP2 MLOAD DUP2 MSTORE PUSH1 0x20 ADD SWAP2 POP DUP1 MLOAD SWAP1 PUSH1 0x20 ADD SWAP1 DUP1 DUP4 DUP4 PUSH1 0x0 JUMPDEST DUP4 DUP2 LT ISZERO PUSH2 0x1EDA JUMPI DUP2 DUP2 ADD MLOAD DUP4 DUP3 ADD MSTORE PUSH1 0x20 ADD PUSH2 0x1EC2 JUMP JUMPDEST POP POP POP POP SWAP1 POP SWAP1 DUP2 ADD SWAP1 PUSH1 0x1F AND DUP1 ISZERO PUSH2 0x1F07 JUMPI DUP1 DUP3 SUB DUP1 MLOAD PUSH1 0x1 DUP4 PUSH1 0x20 SUB PUSH2 0x100 EXP SUB NOT AND DUP2 MSTORE PUSH1 0x20 ADD SWAP2 POP JUMPDEST POP SWAP3 POP POP POP PUSH1 0x40 MLOAD DUP1 SWAP2 SUB SWAP1 REVERT JUMPDEST POP PUSH1 0x0 DUP4 DUP6 DUP2 PUSH2 0x1F21 JUMPI INVALID JUMPDEST DIV SWAP6 SWAP5 POP POP POP POP POP JUMP JUMPDEST PUSH1 0x0 DUP2 DUP5 DUP5 GT ISZERO PUSH2 0x1F7D JUMPI PUSH1 0x40 MLOAD PUSH3 0x461BCD PUSH1 0xE5 SHL DUP2 MSTORE PUSH1 0x20 PUSH1 0x4 DUP3 ADD DUP2 DUP2 MSTORE DUP4 MLOAD PUSH1 0x24 DUP5 ADD MSTORE DUP4 MLOAD SWAP1 SWAP3 DUP4 SWAP3 PUSH1 0x44 SWAP1 SWAP2 ADD SWAP2 SWAP1 DUP6 ADD SWAP1 DUP1 DUP4 DUP4 PUSH1 0x0 DUP4 ISZERO PUSH2 0x1EDA JUMPI DUP2 DUP2 ADD MLOAD DUP4 DUP3 ADD MSTORE PUSH1 0x20 ADD PUSH2 0x1EC2 JUMP JUMPDEST POP POP POP SWAP1 SUB SWAP1 JUMP JUMPDEST PUSH1 0x0 PUSH2 0x1025 DUP4 DUP4 PUSH1 0x40 MLOAD DUP1 PUSH1 0x40 ADD PUSH1 0x40 MSTORE DUP1 PUSH1 0x18 DUP2 MSTORE PUSH1 0x20 ADD PUSH32 0x536166654D6174683A206D6F64756C6F206279207A65726F0000000000000000 DUP2 MSTORE POP PUSH1 0x0 DUP2 DUP4 PUSH2 0x2011 JUMPI PUSH1 0x40 MLOAD PUSH3 0x461BCD PUSH1 0xE5 SHL DUP2 MSTORE PUSH1 0x20 PUSH1 0x4 DUP3 ADD DUP2 DUP2 MSTORE DUP4 MLOAD PUSH1 0x24 DUP5 ADD MSTORE DUP4 MLOAD SWAP1 SWAP3 DUP4 SWAP3 PUSH1 0x44 SWAP1 SWAP2 ADD SWAP2 SWAP1 DUP6 ADD SWAP1 DUP1 DUP4 DUP4 PUSH1 0x0 DUP4 ISZERO PUSH2 0x1EDA JUMPI DUP2 DUP2 ADD MLOAD DUP4 DUP3 ADD MSTORE PUSH1 0x20 ADD PUSH2 0x1EC2 JUMP JUMPDEST POP DUP3 DUP5 DUP2 PUSH2 0x201B JUMPI INVALID JUMPDEST MOD SWAP5 SWAP4 POP POP POP POP JUMP INVALID 0x4F PUSH24 0x6E61626C653A206E6577206F776E65722069732074686520 PUSH27 0x65726F2061646472657373536166654D6174683A206D756C746970 PUSH13 0x69636174696F6E206F76657266 PUSH13 0x6F774F776E61626C653A206361 PUSH13 0x6C6572206973206E6F74207468 PUSH6 0x206F776E6572 LOG2 PUSH5 0x6970667358 0x22 SLT KECCAK256 0xF 0xC7 SWAP6 0xC9 0xC1 0x2E DIFFICULTY ORIGIN 0xF8 SWAP15 CODESIZE EXTCODECOPY 0xC3 0xA7 0x25 DUP3 DIV 0xD BYTE EQ 0xD1 DUP8 SWAP8 0x22 MSTORE8 LOG3 0x2E SLOAD 0xAF LOG2 0x4A SHL PUSH5 0x736F6C6343 STOP MOD 0xC STOP CALLER "
		},
		"gasEstimates": {
			"creation": {
				"codeDepositCost": "1677000",
				"executionCost": "infinite",
				"totalCost": "infinite"
			},
			"external": {
				"BONUS_MULTIPLIER()": "243",
				"add(uint256,address,bool)": "infinite",
				"balanceOfByIdex(uint256,address,uint256)": "2237",
				"balanceOfNFT(uint256,address)": "1286",
				"bonusEndBlock()": "1110",
				"deposit(uint256,uint256[])": "infinite",
				"era()": "1128",
				"fifteenDays()": "265",
				"getMultiplier(uint256,uint256)": "infinite",
				"getReward(uint256)": "infinite",
				"isInStating(address,uint256)": "1333",
				"lockTime()": "267",
				"lockedTime(uint256)": "1195",
				"massUpdatePools()": "infinite",
				"nftweight(uint256)": "1975",
				"owner()": "1104",
				"pendingSushi(uint256,address)": "infinite",
				"poolInfo(uint256)": "6201",
				"poolLength()": "1045",
				"renounceOwnership()": "infinite",
				"set(uint256,uint256,bool)": "infinite",
				"startBlock()": "1065",
				"sushiPerBlock()": "1109",
				"totalAllocPoint()": "1066",
				"totalWeight()": "1043",
				"transferOwnership(address)": "infinite",
				"updatePool(uint256)": "infinite",
				"usdt()": "1149",
				"userInfo(uint256,address)": "2161",
				"withdraw(uint256)": "infinite"
			},
			"internal": {
				"_stake(uint256,uint256[] memory)": "infinite",
				"deposit_In(uint256,uint256)": "infinite",
				"safeSushiTransfer(address,uint256)": "infinite",
				"withdrawNFT(uint256)": "infinite",
				"withdraw_in(uint256,uint256)": "infinite"
			}
		},
		"methodIdentifiers": {
			"BONUS_MULTIPLIER()": "8aa28550",
			"add(uint256,address,bool)": "1eaaa045",
			"balanceOfByIdex(uint256,address,uint256)": "74eeb4f8",
			"balanceOfNFT(uint256,address)": "38b22240",
			"bonusEndBlock()": "1aed6553",
			"deposit(uint256,uint256[])": "de3ab781",
			"era()": "143e55e0",
			"fifteenDays()": "979d3b00",
			"getMultiplier(uint256,uint256)": "8dbb1e3a",
			"getReward(uint256)": "1c4b774b",
			"isInStating(address,uint256)": "f6722461",
			"lockTime()": "0d668087",
			"lockedTime(uint256)": "a84a70aa",
			"massUpdatePools()": "630b5ba1",
			"nftweight(uint256)": "dbe874a5",
			"owner()": "8da5cb5b",
			"pendingSushi(uint256,address)": "195426ec",
			"poolInfo(uint256)": "1526fe27",
			"poolLength()": "081e3eda",
			"renounceOwnership()": "715018a6",
			"set(uint256,uint256,bool)": "64482f79",
			"startBlock()": "48cd4cb1",
			"sushiPerBlock()": "b0bcf42a",
			"totalAllocPoint()": "17caf6f1",
			"totalWeight()": "96c82e57",
			"transferOwnership(address)": "f2fde38b",
			"updatePool(uint256)": "51eb05a6",
			"usdt()": "2f48ab7d",
			"userInfo(uint256,address)": "93f1a40b",
			"withdraw(uint256)": "2e1a7d4d"
		}
	},
	"abi": [
		{
			"inputs": [
				{
					"internalType": "contract IERC20",
					"name": "_era",
					"type": "address"
				},
				{
					"internalType": "uint256",
					"name": "_sushiPerBlock",
					"type": "uint256"
				},
				{
					"internalType": "uint256",
					"name": "_startBlock",
					"type": "uint256"
				},
				{
					"internalType": "uint256",
					"name": "_bonusEndBlock",
					"type": "uint256"
				}
			],
			"stateMutability": "nonpayable",
			"type": "constructor"
		},
		{
			"anonymous": false,
			"inputs": [
				{
					"indexed": true,
					"internalType": "address",
					"name": "user",
					"type": "address"
				},
				{
					"indexed": true,
					"internalType": "uint256",
					"name": "pid",
					"type": "uint256"
				},
				{
					"indexed": false,
					"internalType": "uint256",
					"name": "amount",
					"type": "uint256"
				}
			],
			"name": "Deposit",
			"type": "event"
		},
		{
			"anonymous": false,
			"inputs": [
				{
					"indexed": true,
					"internalType": "address",
					"name": "user",
					"type": "address"
				},
				{
					"indexed": true,
					"internalType": "uint256",
					"name": "pid",
					"type": "uint256"
				},
				{
					"indexed": false,
					"internalType": "uint256",
					"name": "_tokenID",
					"type": "uint256"
				}
			],
			"name": "DepositNFT",
			"type": "event"
		},
		{
			"anonymous": false,
			"inputs": [
				{
					"indexed": true,
					"internalType": "address",
					"name": "previousOwner",
					"type": "address"
				},
				{
					"indexed": true,
					"internalType": "address",
					"name": "newOwner",
					"type": "address"
				}
			],
			"name": "OwnershipTransferred",
			"type": "event"
		},
		{
			"anonymous": false,
			"inputs": [
				{
					"indexed": true,
					"internalType": "address",
					"name": "user",
					"type": "address"
				},
				{
					"indexed": true,
					"internalType": "uint256",
					"name": "pid",
					"type": "uint256"
				},
				{
					"indexed": false,
					"internalType": "uint256",
					"name": "amount",
					"type": "uint256"
				}
			],
			"name": "Withdraw",
			"type": "event"
		},
		{
			"anonymous": false,
			"inputs": [
				{
					"indexed": true,
					"internalType": "address",
					"name": "user",
					"type": "address"
				},
				{
					"indexed": true,
					"internalType": "uint256",
					"name": "pid",
					"type": "uint256"
				},
				{
					"indexed": false,
					"internalType": "uint256",
					"name": "_tokenID",
					"type": "uint256"
				}
			],
			"name": "WithdrawNFT",
			"type": "event"
		},
		{
			"inputs": [],
			"name": "BONUS_MULTIPLIER",
			"outputs": [
				{
					"internalType": "uint256",
					"name": "",
					"type": "uint256"
				}
			],
			"stateMutability": "view",
			"type": "function"
		},
		{
			"inputs": [
				{
					"internalType": "uint256",
					"name": "_allocPoint",
					"type": "uint256"
				},
				{
					"internalType": "address",
					"name": "_lpToken",
					"type": "address"
				},
				{
					"internalType": "bool",
					"name": "_withUpdate",
					"type": "bool"
				}
			],
			"name": "add",
			"outputs": [],
			"stateMutability": "nonpayable",
			"type": "function"
		},
		{
			"inputs": [
				{
					"internalType": "uint256",
					"name": "_pid",
					"type": "uint256"
				},
				{
					"internalType": "address",
					"name": "account",
					"type": "address"
				},
				{
					"internalType": "uint256",
					"name": "index",
					"type": "uint256"
				}
			],
			"name": "balanceOfByIdex",
			"outputs": [
				{
					"internalType": "uint256",
					"name": "",
					"type": "uint256"
				}
			],
			"stateMutability": "view",
			"type": "function"
		},
		{
			"inputs": [
				{
					"internalType": "uint256",
					"name": "_pid",
					"type": "uint256"
				},
				{
					"internalType": "address",
					"name": "account",
					"type": "address"
				}
			],
			"name": "balanceOfNFT",
			"outputs": [
				{
					"internalType": "uint256",
					"name": "",
					"type": "uint256"
				}
			],
			"stateMutability": "view",
			"type": "function"
		},
		{
			"inputs": [],
			"name": "bonusEndBlock",
			"outputs": [
				{
					"internalType": "uint256",
					"name": "",
					"type": "uint256"
				}
			],
			"stateMutability": "view",
			"type": "function"
		},
		{
			"inputs": [
				{
					"internalType": "uint256",
					"name": "_pid",
					"type": "uint256"
				},
				{
					"internalType": "uint256[]",
					"name": "tokenIDList",
					"type": "uint256[]"
				}
			],
			"name": "deposit",
			"outputs": [],
			"stateMutability": "nonpayable",
			"type": "function"
		},
		{
			"inputs": [],
			"name": "era",
			"outputs": [
				{
					"internalType": "contract IERC20",
					"name": "",
					"type": "address"
				}
			],
			"stateMutability": "view",
			"type": "function"
		},
		{
			"inputs": [],
			"name": "fifteenDays",
			"outputs": [
				{
					"internalType": "uint256",
					"name": "",
					"type": "uint256"
				}
			],
			"stateMutability": "view",
			"type": "function"
		},
		{
			"inputs": [
				{
					"internalType": "uint256",
					"name": "_from",
					"type": "uint256"
				},
				{
					"internalType": "uint256",
					"name": "_to",
					"type": "uint256"
				}
			],
			"name": "getMultiplier",
			"outputs": [
				{
					"internalType": "uint256",
					"name": "",
					"type": "uint256"
				}
			],
			"stateMutability": "view",
			"type": "function"
		},
		{
			"inputs": [
				{
					"internalType": "uint256",
					"name": "_pid",
					"type": "uint256"
				}
			],
			"name": "getReward",
			"outputs": [],
			"stateMutability": "nonpayable",
			"type": "function"
		},
		{
			"inputs": [
				{
					"internalType": "address",
					"name": "",
					"type": "address"
				},
				{
					"internalType": "uint256",
					"name": "",
					"type": "uint256"
				}
			],
			"name": "isInStating",
			"outputs": [
				{
					"internalType": "bool",
					"name": "",
					"type": "bool"
				}
			],
			"stateMutability": "view",
			"type": "function"
		},
		{
			"inputs": [],
			"name": "lockTime",
			"outputs": [
				{
					"internalType": "uint256",
					"name": "",
					"type": "uint256"
				}
			],
			"stateMutability": "view",
			"type": "function"
		},
		{
			"inputs": [
				{
					"internalType": "uint256",
					"name": "",
					"type": "uint256"
				}
			],
			"name": "lockedTime",
			"outputs": [
				{
					"internalType": "uint256",
					"name": "",
					"type": "uint256"
				}
			],
			"stateMutability": "view",
			"type": "function"
		},
		{
			"inputs": [],
			"name": "massUpdatePools",
			"outputs": [],
			"stateMutability": "nonpayable",
			"type": "function"
		},
		{
			"inputs": [
				{
					"internalType": "uint256",
					"name": "",
					"type": "uint256"
				}
			],
			"name": "nftweight",
			"outputs": [
				{
					"internalType": "uint256",
					"name": "",
					"type": "uint256"
				}
			],
			"stateMutability": "view",
			"type": "function"
		},
		{
			"inputs": [],
			"name": "owner",
			"outputs": [
				{
					"internalType": "address",
					"name": "",
					"type": "address"
				}
			],
			"stateMutability": "view",
			"type": "function"
		},
		{
			"inputs": [
				{
					"internalType": "uint256",
					"name": "_pid",
					"type": "uint256"
				},
				{
					"internalType": "address",
					"name": "_user",
					"type": "address"
				}
			],
			"name": "pendingSushi",
			"outputs": [
				{
					"internalType": "uint256",
					"name": "",
					"type": "uint256"
				}
			],
			"stateMutability": "view",
			"type": "function"
		},
		{
			"inputs": [
				{
					"internalType": "uint256",
					"name": "",
					"type": "uint256"
				}
			],
			"name": "poolInfo",
			"outputs": [
				{
					"internalType": "address",
					"name": "lpToken",
					"type": "address"
				},
				{
					"internalType": "uint256",
					"name": "allocPoint",
					"type": "uint256"
				},
				{
					"internalType": "uint256",
					"name": "lastRewardBlock",
					"type": "uint256"
				},
				{
					"internalType": "uint256",
					"name": "accSushiPerShare",
					"type": "uint256"
				},
				{
					"internalType": "uint256",
					"name": "lpSupply",
					"type": "uint256"
				},
				{
					"internalType": "uint256",
					"name": "totalStakingNFTAmount",
					"type": "uint256"
				}
			],
			"stateMutability": "view",
			"type": "function"
		},
		{
			"inputs": [],
			"name": "poolLength",
			"outputs": [
				{
					"internalType": "uint256",
					"name": "",
					"type": "uint256"
				}
			],
			"stateMutability": "view",
			"type": "function"
		},
		{
			"inputs": [],
			"name": "renounceOwnership",
			"outputs": [],
			"stateMutability": "nonpayable",
			"type": "function"
		},
		{
			"inputs": [
				{
					"internalType": "uint256",
					"name": "_pid",
					"type": "uint256"
				},
				{
					"internalType": "uint256",
					"name": "_allocPoint",
					"type": "uint256"
				},
				{
					"internalType": "bool",
					"name": "_withUpdate",
					"type": "bool"
				}
			],
			"name": "set",
			"outputs": [],
			"stateMutability": "nonpayable",
			"type": "function"
		},
		{
			"inputs": [],
			"name": "startBlock",
			"outputs": [
				{
					"internalType": "uint256",
					"name": "",
					"type": "uint256"
				}
			],
			"stateMutability": "view",
			"type": "function"
		},
		{
			"inputs": [],
			"name": "sushiPerBlock",
			"outputs": [
				{
					"internalType": "uint256",
					"name": "",
					"type": "uint256"
				}
			],
			"stateMutability": "view",
			"type": "function"
		},
		{
			"inputs": [],
			"name": "totalAllocPoint",
			"outputs": [
				{
					"internalType": "uint256",
					"name": "",
					"type": "uint256"
				}
			],
			"stateMutability": "view",
			"type": "function"
		},
		{
			"inputs": [],
			"name": "totalWeight",
			"outputs": [
				{
					"internalType": "uint256",
					"name": "",
					"type": "uint256"
				}
			],
			"stateMutability": "view",
			"type": "function"
		},
		{
			"inputs": [
				{
					"internalType": "address",
					"name": "newOwner",
					"type": "address"
				}
			],
			"name": "transferOwnership",
			"outputs": [],
			"stateMutability": "nonpayable",
			"type": "function"
		},
		{
			"inputs": [
				{
					"internalType": "uint256",
					"name": "_pid",
					"type": "uint256"
				}
			],
			"name": "updatePool",
			"outputs": [],
			"stateMutability": "nonpayable",
			"type": "function"
		},
		{
			"inputs": [],
			"name": "usdt",
			"outputs": [
				{
					"internalType": "address",
					"name": "",
					"type": "address"
				}
			],
			"stateMutability": "view",
			"type": "function"
		},
		{
			"inputs": [
				{
					"internalType": "uint256",
					"name": "",
					"type": "uint256"
				},
				{
					"internalType": "address",
					"name": "",
					"type": "address"
				}
			],
			"name": "userInfo",
			"outputs": [
				{
					"internalType": "uint256",
					"name": "amount",
					"type": "uint256"
				},
				{
					"internalType": "uint256",
					"name": "rewardDebt",
					"type": "uint256"
				}
			],
			"stateMutability": "view",
			"type": "function"
		},
		{
			"inputs": [
				{
					"internalType": "uint256",
					"name": "_pid",
					"type": "uint256"
				}
			],
			"name": "withdraw",
			"outputs": [],
			"stateMutability": "nonpayable",
			"type": "function"
		}
	]
}